{
	"Simple_bank.sol": {
		"SimpleBank": {
			"abi": [
				{
					"inputs": [],
					"stateMutability": "nonpayable",
					"type": "constructor"
				},
				{
					"inputs": [
						{
							"internalType": "address",
							"name": "",
							"type": "address"
						}
					],
					"name": "balances",
					"outputs": [
						{
							"internalType": "uint256",
							"name": "",
							"type": "uint256"
						}
					],
					"stateMutability": "view",
					"type": "function"
				},
				{
					"inputs": [],
					"name": "deposit",
					"outputs": [],
					"stateMutability": "payable",
					"type": "function"
				},
				{
					"inputs": [],
					"name": "getBalance",
					"outputs": [
						{
							"internalType": "uint256",
							"name": "",
							"type": "uint256"
						}
					],
					"stateMutability": "view",
					"type": "function"
				},
				{
					"inputs": [],
					"name": "getContractBalance",
					"outputs": [
						{
							"internalType": "uint256",
							"name": "",
							"type": "uint256"
						}
					],
					"stateMutability": "view",
					"type": "function"
				},
				{
					"inputs": [],
					"name": "owner",
					"outputs": [
						{
							"internalType": "address",
							"name": "",
							"type": "address"
						}
					],
					"stateMutability": "view",
					"type": "function"
				},
				{
					"inputs": [
						{
							"internalType": "address",
							"name": "_to",
							"type": "address"
						},
						{
							"internalType": "uint256",
							"name": "_amount",
							"type": "uint256"
						}
					],
					"name": "transfer",
					"outputs": [],
					"stateMutability": "nonpayable",
					"type": "function"
				},
				{
					"inputs": [
						{
							"internalType": "uint256",
							"name": "_amount",
							"type": "uint256"
						}
					],
					"name": "withdraw",
					"outputs": [],
					"stateMutability": "nonpayable",
					"type": "function"
				}
			],
			"devdoc": {
				"kind": "dev",
				"methods": {},
				"version": 1
			},
			"evm": {
				"assembly": "    /* \"Simple_bank.sol\":60:1959  contract SimpleBank {... */\n  mstore(0x40, 0x80)\n    /* \"Simple_bank.sol\":310:390  constructor() {... */\n  callvalue\n  dup1\n  iszero\n  tag_1\n  jumpi\n  0x00\n  dup1\n  revert\ntag_1:\n  pop\n    /* \"Simple_bank.sol\":339:349  msg.sender */\n  caller\n    /* \"Simple_bank.sol\":331:336  owner */\n  0x01\n  0x00\n    /* \"Simple_bank.sol\":331:349  owner = msg.sender */\n  0x0100\n  exp\n  dup2\n  sload\n  dup2\n  0xffffffffffffffffffffffffffffffffffffffff\n  mul\n  not\n  and\n  swap1\n  dup4\n  0xffffffffffffffffffffffffffffffffffffffff\n  and\n  mul\n  or\n  swap1\n  sstore\n  pop\n    /* \"Simple_bank.sol\":60:1959  contract SimpleBank {... */\n  dataSize(sub_0)\n  dup1\n  dataOffset(sub_0)\n  0x00\n  codecopy\n  0x00\n  return\nstop\n\nsub_0: assembly {\n        /* \"Simple_bank.sol\":60:1959  contract SimpleBank {... */\n      mstore(0x40, 0x80)\n      jumpi(tag_1, lt(calldatasize, 0x04))\n      shr(0xe0, calldataload(0x00))\n      dup1\n      0x6f9fb98a\n      gt\n      tag_9\n      jumpi\n      dup1\n      0x6f9fb98a\n      eq\n      tag_5\n      jumpi\n      dup1\n      0x8da5cb5b\n      eq\n      tag_6\n      jumpi\n      dup1\n      0xa9059cbb\n      eq\n      tag_7\n      jumpi\n      dup1\n      0xd0e30db0\n      eq\n      tag_8\n      jumpi\n      jump(tag_1)\n    tag_9:\n      dup1\n      0x12065fe0\n      eq\n      tag_2\n      jumpi\n      dup1\n      0x27e235e3\n      eq\n      tag_3\n      jumpi\n      dup1\n      0x2e1a7d4d\n      eq\n      tag_4\n      jumpi\n    tag_1:\n      0x00\n      dup1\n      revert\n        /* \"Simple_bank.sol\":795:929  function getBalance() public view returns (uint256) {... */\n    tag_2:\n      callvalue\n      dup1\n      iszero\n      tag_10\n      jumpi\n      0x00\n      dup1\n      revert\n    tag_10:\n      pop\n      tag_11\n      tag_12\n      jump\t// in\n    tag_11:\n      mload(0x40)\n      tag_13\n      swap2\n      swap1\n      tag_14\n      jump\t// in\n    tag_13:\n      mload(0x40)\n      dup1\n      swap2\n      sub\n      swap1\n      return\n        /* \"Simple_bank.sol\":113:156  mapping(address => uint256) public balances */\n    tag_3:\n      callvalue\n      dup1\n      iszero\n      tag_15\n      jumpi\n      0x00\n      dup1\n      revert\n    tag_15:\n      pop\n      tag_16\n      0x04\n      dup1\n      calldatasize\n      sub\n      dup2\n      add\n      swap1\n      tag_17\n      swap2\n      swap1\n      tag_18\n      jump\t// in\n    tag_17:\n      tag_19\n      jump\t// in\n    tag_16:\n      mload(0x40)\n      tag_20\n      swap2\n      swap1\n      tag_14\n      jump\t// in\n    tag_20:\n      mload(0x40)\n      dup1\n      swap2\n      sub\n      swap1\n      return\n        /* \"Simple_bank.sol\":972:1224  function withdraw(uint256 _amount) public {... */\n    tag_4:\n      callvalue\n      dup1\n      iszero\n      tag_21\n      jumpi\n      0x00\n      dup1\n      revert\n    tag_21:\n      pop\n      tag_22\n      0x04\n      dup1\n      calldatasize\n      sub\n      dup2\n      add\n      swap1\n      tag_23\n      swap2\n      swap1\n      tag_24\n      jump\t// in\n    tag_23:\n      tag_25\n      jump\t// in\n    tag_22:\n      stop\n        /* \"Simple_bank.sol\":1303:1457  function getContractBalance()public view onlyOwner returns (uint256) {... */\n    tag_5:\n      callvalue\n      dup1\n      iszero\n      tag_26\n      jumpi\n      0x00\n      dup1\n      revert\n    tag_26:\n      pop\n      tag_27\n      tag_28\n      jump\t// in\n    tag_27:\n      mload(0x40)\n      tag_29\n      swap2\n      swap1\n      tag_14\n      jump\t// in\n    tag_29:\n      mload(0x40)\n      dup1\n      swap2\n      sub\n      swap1\n      return\n        /* \"Simple_bank.sol\":190:210  address public owner */\n    tag_6:\n      callvalue\n      dup1\n      iszero\n      tag_30\n      jumpi\n      0x00\n      dup1\n      revert\n    tag_30:\n      pop\n      tag_31\n      tag_32\n      jump\t// in\n    tag_31:\n      mload(0x40)\n      tag_33\n      swap2\n      swap1\n      tag_34\n      jump\t// in\n    tag_33:\n      mload(0x40)\n      dup1\n      swap2\n      sub\n      swap1\n      return\n        /* \"Simple_bank.sol\":1542:1956  function transfer(address _to, uint256 _amount) public {... */\n    tag_7:\n      callvalue\n      dup1\n      iszero\n      tag_35\n      jumpi\n      0x00\n      dup1\n      revert\n    tag_35:\n      pop\n      tag_36\n      0x04\n      dup1\n      calldatasize\n      sub\n      dup2\n      add\n      swap1\n      tag_37\n      swap2\n      swap1\n      tag_38\n      jump\t// in\n    tag_37:\n      tag_39\n      jump\t// in\n    tag_36:\n      stop\n        /* \"Simple_bank.sol\":580:742  function deposit() public payable {... */\n    tag_8:\n      tag_40\n      tag_41\n      jump\t// in\n    tag_40:\n      stop\n        /* \"Simple_bank.sol\":795:929  function getBalance() public view returns (uint256) {... */\n    tag_12:\n        /* \"Simple_bank.sol\":838:845  uint256 */\n      0x00\n        /* \"Simple_bank.sol\":861:869  balances */\n      dup1\n        /* \"Simple_bank.sol\":861:881  balances[msg.sender] */\n      0x00\n        /* \"Simple_bank.sol\":870:880  msg.sender */\n      caller\n        /* \"Simple_bank.sol\":861:881  balances[msg.sender] */\n      0xffffffffffffffffffffffffffffffffffffffff\n      and\n      0xffffffffffffffffffffffffffffffffffffffff\n      and\n      dup2\n      mstore\n      0x20\n      add\n      swap1\n      dup2\n      mstore\n      0x20\n      add\n      0x00\n      keccak256\n      sload\n        /* \"Simple_bank.sol\":854:881  return balances[msg.sender] */\n      swap1\n      pop\n        /* \"Simple_bank.sol\":795:929  function getBalance() public view returns (uint256) {... */\n      swap1\n      jump\t// out\n        /* \"Simple_bank.sol\":113:156  mapping(address => uint256) public balances */\n    tag_19:\n      mstore(0x20, 0x00)\n      dup1\n      0x00\n      mstore\n      keccak256(0x00, 0x40)\n      0x00\n      swap2\n      pop\n      swap1\n      pop\n      sload\n      dup2\n      jump\t// out\n        /* \"Simple_bank.sol\":972:1224  function withdraw(uint256 _amount) public {... */\n    tag_25:\n        /* \"Simple_bank.sol\":1051:1058  _amount */\n      dup1\n        /* \"Simple_bank.sol\":1027:1035  balances */\n      0x00\n        /* \"Simple_bank.sol\":1027:1047  balances[msg.sender] */\n      dup1\n        /* \"Simple_bank.sol\":1036:1046  msg.sender */\n      caller\n        /* \"Simple_bank.sol\":1027:1047  balances[msg.sender] */\n      0xffffffffffffffffffffffffffffffffffffffff\n      and\n      0xffffffffffffffffffffffffffffffffffffffff\n      and\n      dup2\n      mstore\n      0x20\n      add\n      swap1\n      dup2\n      mstore\n      0x20\n      add\n      0x00\n      keccak256\n      sload\n        /* \"Simple_bank.sol\":1027:1058  balances[msg.sender] >= _amount */\n      lt\n      iszero\n        /* \"Simple_bank.sol\":1019:1089  require(balances[msg.sender] >= _amount, \"No tienes sufiectes fondos\") */\n      tag_44\n      jumpi\n      mload(0x40)\n      0x08c379a000000000000000000000000000000000000000000000000000000000\n      dup2\n      mstore\n      0x04\n      add\n      tag_45\n      swap1\n      tag_46\n      jump\t// in\n    tag_45:\n      mload(0x40)\n      dup1\n      swap2\n      sub\n      swap1\n      revert\n    tag_44:\n        /* \"Simple_bank.sol\":1116:1123  _amount */\n      dup1\n        /* \"Simple_bank.sol\":1092:1100  balances */\n      0x00\n        /* \"Simple_bank.sol\":1092:1112  balances[msg.sender] */\n      dup1\n        /* \"Simple_bank.sol\":1101:1111  msg.sender */\n      caller\n        /* \"Simple_bank.sol\":1092:1112  balances[msg.sender] */\n      0xffffffffffffffffffffffffffffffffffffffff\n      and\n      0xffffffffffffffffffffffffffffffffffffffff\n      and\n      dup2\n      mstore\n      0x20\n      add\n      swap1\n      dup2\n      mstore\n      0x20\n      add\n      0x00\n      keccak256\n      0x00\n        /* \"Simple_bank.sol\":1092:1123  balances[msg.sender] -= _amount */\n      dup3\n      dup3\n      sload\n      tag_47\n      swap2\n      swap1\n      tag_48\n      jump\t// in\n    tag_47:\n      swap3\n      pop\n      pop\n      dup2\n      swap1\n      sstore\n      pop\n        /* \"Simple_bank.sol\":1167:1177  msg.sender */\n      caller\n        /* \"Simple_bank.sol\":1159:1187  payable(msg.sender).transfer */\n      0xffffffffffffffffffffffffffffffffffffffff\n      and\n        /* \"Simple_bank.sol\":1159:1196  payable(msg.sender).transfer(_amount) */\n      0x08fc\n        /* \"Simple_bank.sol\":1188:1195  _amount */\n      dup3\n        /* \"Simple_bank.sol\":1159:1196  payable(msg.sender).transfer(_amount) */\n      swap1\n      dup2\n      iszero\n      mul\n      swap1\n      mload(0x40)\n      0x00\n      mload(0x40)\n      dup1\n      dup4\n      sub\n      dup2\n      dup6\n      dup9\n      dup9\n      call\n      swap4\n      pop\n      pop\n      pop\n      pop\n      iszero\n      dup1\n      iszero\n      tag_50\n      jumpi\n      returndatasize\n      0x00\n      dup1\n      returndatacopy\n      revert(0x00, returndatasize)\n    tag_50:\n      pop\n        /* \"Simple_bank.sol\":972:1224  function withdraw(uint256 _amount) public {... */\n      pop\n      jump\t// out\n        /* \"Simple_bank.sol\":1303:1457  function getContractBalance()public view onlyOwner returns (uint256) {... */\n    tag_28:\n        /* \"Simple_bank.sol\":1363:1370  uint256 */\n      0x00\n        /* \"Simple_bank.sol\":502:507  owner */\n      0x01\n      0x00\n      swap1\n      sload\n      swap1\n      0x0100\n      exp\n      swap1\n      div\n      0xffffffffffffffffffffffffffffffffffffffff\n      and\n        /* \"Simple_bank.sol\":488:507  msg.sender == owner */\n      0xffffffffffffffffffffffffffffffffffffffff\n      and\n        /* \"Simple_bank.sol\":488:498  msg.sender */\n      caller\n        /* \"Simple_bank.sol\":488:507  msg.sender == owner */\n      0xffffffffffffffffffffffffffffffffffffffff\n      and\n      eq\n        /* \"Simple_bank.sol\":480:531  require(msg.sender == owner, \"no estas autorizado\") */\n      tag_52\n      jumpi\n      mload(0x40)\n      0x08c379a000000000000000000000000000000000000000000000000000000000\n      dup2\n      mstore\n      0x04\n      add\n      tag_53\n      swap1\n      tag_54\n      jump\t// in\n    tag_53:\n      mload(0x40)\n      dup1\n      swap2\n      sub\n      swap1\n      revert\n    tag_52:\n        /* \"Simple_bank.sol\":1386:1407  address(this).balance */\n      selfbalance\n        /* \"Simple_bank.sol\":1379:1407  return address(this).balance */\n      swap1\n      pop\n        /* \"Simple_bank.sol\":1303:1457  function getContractBalance()public view onlyOwner returns (uint256) {... */\n      swap1\n      jump\t// out\n        /* \"Simple_bank.sol\":190:210  address public owner */\n    tag_32:\n      0x01\n      0x00\n      swap1\n      sload\n      swap1\n      0x0100\n      exp\n      swap1\n      div\n      0xffffffffffffffffffffffffffffffffffffffff\n      and\n      dup2\n      jump\t// out\n        /* \"Simple_bank.sol\":1542:1956  function transfer(address _to, uint256 _amount) public {... */\n    tag_39:\n        /* \"Simple_bank.sol\":1627:1628  0 */\n      0x00\n        /* \"Simple_bank.sol\":1612:1629  _to != address(0) */\n      0xffffffffffffffffffffffffffffffffffffffff\n      and\n        /* \"Simple_bank.sol\":1612:1615  _to */\n      dup3\n        /* \"Simple_bank.sol\":1612:1629  _to != address(0) */\n      0xffffffffffffffffffffffffffffffffffffffff\n      and\n      sub\n        /* \"Simple_bank.sol\":1604:1651  require(_to != address(0),\"Direccion invalida\") */\n      tag_57\n      jumpi\n      mload(0x40)\n      0x08c379a000000000000000000000000000000000000000000000000000000000\n      dup2\n      mstore\n      0x04\n      add\n      tag_58\n      swap1\n      tag_59\n      jump\t// in\n    tag_58:\n      mload(0x40)\n      dup1\n      swap2\n      sub\n      swap1\n      revert\n    tag_57:\n        /* \"Simple_bank.sol\":1730:1737  _amount */\n      dup1\n        /* \"Simple_bank.sol\":1706:1714  balances */\n      0x00\n        /* \"Simple_bank.sol\":1706:1726  balances[msg.sender] */\n      dup1\n        /* \"Simple_bank.sol\":1715:1725  msg.sender */\n      caller\n        /* \"Simple_bank.sol\":1706:1726  balances[msg.sender] */\n      0xffffffffffffffffffffffffffffffffffffffff\n      and\n      0xffffffffffffffffffffffffffffffffffffffff\n      and\n      dup2\n      mstore\n      0x20\n      add\n      swap1\n      dup2\n      mstore\n      0x20\n      add\n      0x00\n      keccak256\n      sload\n        /* \"Simple_bank.sol\":1706:1737  balances[msg.sender] >= _amount */\n      lt\n      iszero\n        /* \"Simple_bank.sol\":1698:1761  require(balances[msg.sender] >= _amount,\"fondos insuficientes\") */\n      tag_60\n      jumpi\n      mload(0x40)\n      0x08c379a000000000000000000000000000000000000000000000000000000000\n      dup2\n      mstore\n      0x04\n      add\n      tag_61\n      swap1\n      tag_62\n      jump\t// in\n    tag_61:\n      mload(0x40)\n      dup1\n      swap2\n      sub\n      swap1\n      revert\n    tag_60:\n        /* \"Simple_bank.sol\":1842:1849  _amount */\n      dup1\n        /* \"Simple_bank.sol\":1818:1826  balances */\n      0x00\n        /* \"Simple_bank.sol\":1818:1838  balances[msg.sender] */\n      dup1\n        /* \"Simple_bank.sol\":1827:1837  msg.sender */\n      caller\n        /* \"Simple_bank.sol\":1818:1838  balances[msg.sender] */\n      0xffffffffffffffffffffffffffffffffffffffff\n      and\n      0xffffffffffffffffffffffffffffffffffffffff\n      and\n      dup2\n      mstore\n      0x20\n      add\n      swap1\n      dup2\n      mstore\n      0x20\n      add\n      0x00\n      keccak256\n      0x00\n        /* \"Simple_bank.sol\":1818:1849  balances[msg.sender] -= _amount */\n      dup3\n      dup3\n      sload\n      tag_63\n      swap2\n      swap1\n      tag_48\n      jump\t// in\n    tag_63:\n      swap3\n      pop\n      pop\n      dup2\n      swap1\n      sstore\n      pop\n        /* \"Simple_bank.sol\":1905:1912  _amount */\n      dup1\n        /* \"Simple_bank.sol\":1888:1896  balances */\n      0x00\n        /* \"Simple_bank.sol\":1888:1901  balances[_to] */\n      dup1\n        /* \"Simple_bank.sol\":1897:1900  _to */\n      dup5\n        /* \"Simple_bank.sol\":1888:1901  balances[_to] */\n      0xffffffffffffffffffffffffffffffffffffffff\n      and\n      0xffffffffffffffffffffffffffffffffffffffff\n      and\n      dup2\n      mstore\n      0x20\n      add\n      swap1\n      dup2\n      mstore\n      0x20\n      add\n      0x00\n      keccak256\n      0x00\n        /* \"Simple_bank.sol\":1888:1912  balances[_to] += _amount */\n      dup3\n      dup3\n      sload\n      tag_64\n      swap2\n      swap1\n      tag_65\n      jump\t// in\n    tag_64:\n      swap3\n      pop\n      pop\n      dup2\n      swap1\n      sstore\n      pop\n        /* \"Simple_bank.sol\":1542:1956  function transfer(address _to, uint256 _amount) public {... */\n      pop\n      pop\n      jump\t// out\n        /* \"Simple_bank.sol\":580:742  function deposit() public payable {... */\n    tag_41:\n        /* \"Simple_bank.sol\":641:642  0 */\n      0x00\n        /* \"Simple_bank.sol\":629:638  msg.value */\n      callvalue\n        /* \"Simple_bank.sol\":629:642  msg.value > 0 */\n      gt\n        /* \"Simple_bank.sol\":621:662  require(msg.value > 0,\"debes enviar ETH\") */\n      tag_67\n      jumpi\n      mload(0x40)\n      0x08c379a000000000000000000000000000000000000000000000000000000000\n      dup2\n      mstore\n      0x04\n      add\n      tag_68\n      swap1\n      tag_69\n      jump\t// in\n    tag_68:\n      mload(0x40)\n      dup1\n      swap2\n      sub\n      swap1\n      revert\n    tag_67:\n        /* \"Simple_bank.sol\":693:702  msg.value */\n      callvalue\n        /* \"Simple_bank.sol\":669:677  balances */\n      0x00\n        /* \"Simple_bank.sol\":669:689  balances[msg.sender] */\n      dup1\n        /* \"Simple_bank.sol\":678:688  msg.sender */\n      caller\n        /* \"Simple_bank.sol\":669:689  balances[msg.sender] */\n      0xffffffffffffffffffffffffffffffffffffffff\n      and\n      0xffffffffffffffffffffffffffffffffffffffff\n      and\n      dup2\n      mstore\n      0x20\n      add\n      swap1\n      dup2\n      mstore\n      0x20\n      add\n      0x00\n      keccak256\n      0x00\n        /* \"Simple_bank.sol\":669:702  balances[msg.sender] += msg.value */\n      dup3\n      dup3\n      sload\n      tag_70\n      swap2\n      swap1\n      tag_65\n      jump\t// in\n    tag_70:\n      swap3\n      pop\n      pop\n      dup2\n      swap1\n      sstore\n      pop\n        /* \"Simple_bank.sol\":580:742  function deposit() public payable {... */\n      jump\t// out\n        /* \"#utility.yul\":7:84   */\n    tag_71:\n        /* \"#utility.yul\":44:51   */\n      0x00\n        /* \"#utility.yul\":73:78   */\n      dup2\n        /* \"#utility.yul\":62:78   */\n      swap1\n      pop\n        /* \"#utility.yul\":7:84   */\n      swap2\n      swap1\n      pop\n      jump\t// out\n        /* \"#utility.yul\":90:208   */\n    tag_72:\n        /* \"#utility.yul\":177:201   */\n      tag_98\n        /* \"#utility.yul\":195:200   */\n      dup2\n        /* \"#utility.yul\":177:201   */\n      tag_71\n      jump\t// in\n    tag_98:\n        /* \"#utility.yul\":172:175   */\n      dup3\n        /* \"#utility.yul\":165:202   */\n      mstore\n        /* \"#utility.yul\":90:208   */\n      pop\n      pop\n      jump\t// out\n        /* \"#utility.yul\":214:436   */\n    tag_14:\n        /* \"#utility.yul\":307:311   */\n      0x00\n        /* \"#utility.yul\":345:347   */\n      0x20\n        /* \"#utility.yul\":334:343   */\n      dup3\n        /* \"#utility.yul\":330:348   */\n      add\n        /* \"#utility.yul\":322:348   */\n      swap1\n      pop\n        /* \"#utility.yul\":358:429   */\n      tag_100\n        /* \"#utility.yul\":426:427   */\n      0x00\n        /* \"#utility.yul\":415:424   */\n      dup4\n        /* \"#utility.yul\":411:428   */\n      add\n        /* \"#utility.yul\":402:408   */\n      dup5\n        /* \"#utility.yul\":358:429   */\n      tag_72\n      jump\t// in\n    tag_100:\n        /* \"#utility.yul\":214:436   */\n      swap3\n      swap2\n      pop\n      pop\n      jump\t// out\n        /* \"#utility.yul\":523:640   */\n    tag_74:\n        /* \"#utility.yul\":632:633   */\n      0x00\n        /* \"#utility.yul\":629:630   */\n      dup1\n        /* \"#utility.yul\":622:634   */\n      revert\n        /* \"#utility.yul\":769:895   */\n    tag_76:\n        /* \"#utility.yul\":806:813   */\n      0x00\n        /* \"#utility.yul\":846:888   */\n      0xffffffffffffffffffffffffffffffffffffffff\n        /* \"#utility.yul\":839:844   */\n      dup3\n        /* \"#utility.yul\":835:889   */\n      and\n        /* \"#utility.yul\":824:889   */\n      swap1\n      pop\n        /* \"#utility.yul\":769:895   */\n      swap2\n      swap1\n      pop\n      jump\t// out\n        /* \"#utility.yul\":901:997   */\n    tag_77:\n        /* \"#utility.yul\":938:945   */\n      0x00\n        /* \"#utility.yul\":967:991   */\n      tag_106\n        /* \"#utility.yul\":985:990   */\n      dup3\n        /* \"#utility.yul\":967:991   */\n      tag_76\n      jump\t// in\n    tag_106:\n        /* \"#utility.yul\":956:991   */\n      swap1\n      pop\n        /* \"#utility.yul\":901:997   */\n      swap2\n      swap1\n      pop\n      jump\t// out\n        /* \"#utility.yul\":1003:1125   */\n    tag_78:\n        /* \"#utility.yul\":1076:1100   */\n      tag_108\n        /* \"#utility.yul\":1094:1099   */\n      dup2\n        /* \"#utility.yul\":1076:1100   */\n      tag_77\n      jump\t// in\n    tag_108:\n        /* \"#utility.yul\":1069:1074   */\n      dup2\n        /* \"#utility.yul\":1066:1101   */\n      eq\n        /* \"#utility.yul\":1056:1119   */\n      tag_109\n      jumpi\n        /* \"#utility.yul\":1115:1116   */\n      0x00\n        /* \"#utility.yul\":1112:1113   */\n      dup1\n        /* \"#utility.yul\":1105:1117   */\n      revert\n        /* \"#utility.yul\":1056:1119   */\n    tag_109:\n        /* \"#utility.yul\":1003:1125   */\n      pop\n      jump\t// out\n        /* \"#utility.yul\":1131:1270   */\n    tag_79:\n        /* \"#utility.yul\":1177:1182   */\n      0x00\n        /* \"#utility.yul\":1215:1221   */\n      dup2\n        /* \"#utility.yul\":1202:1222   */\n      calldataload\n        /* \"#utility.yul\":1193:1222   */\n      swap1\n      pop\n        /* \"#utility.yul\":1231:1264   */\n      tag_111\n        /* \"#utility.yul\":1258:1263   */\n      dup2\n        /* \"#utility.yul\":1231:1264   */\n      tag_78\n      jump\t// in\n    tag_111:\n        /* \"#utility.yul\":1131:1270   */\n      swap3\n      swap2\n      pop\n      pop\n      jump\t// out\n        /* \"#utility.yul\":1276:1605   */\n    tag_18:\n        /* \"#utility.yul\":1335:1341   */\n      0x00\n        /* \"#utility.yul\":1384:1386   */\n      0x20\n        /* \"#utility.yul\":1372:1381   */\n      dup3\n        /* \"#utility.yul\":1363:1370   */\n      dup5\n        /* \"#utility.yul\":1359:1382   */\n      sub\n        /* \"#utility.yul\":1355:1387   */\n      slt\n        /* \"#utility.yul\":1352:1471   */\n      iszero\n      tag_113\n      jumpi\n        /* \"#utility.yul\":1390:1469   */\n      tag_114\n      tag_74\n      jump\t// in\n    tag_114:\n        /* \"#utility.yul\":1352:1471   */\n    tag_113:\n        /* \"#utility.yul\":1510:1511   */\n      0x00\n        /* \"#utility.yul\":1535:1588   */\n      tag_115\n        /* \"#utility.yul\":1580:1587   */\n      dup5\n        /* \"#utility.yul\":1571:1577   */\n      dup3\n        /* \"#utility.yul\":1560:1569   */\n      dup6\n        /* \"#utility.yul\":1556:1578   */\n      add\n        /* \"#utility.yul\":1535:1588   */\n      tag_79\n      jump\t// in\n    tag_115:\n        /* \"#utility.yul\":1525:1588   */\n      swap2\n      pop\n        /* \"#utility.yul\":1481:1598   */\n      pop\n        /* \"#utility.yul\":1276:1605   */\n      swap3\n      swap2\n      pop\n      pop\n      jump\t// out\n        /* \"#utility.yul\":1611:1733   */\n    tag_80:\n        /* \"#utility.yul\":1684:1708   */\n      tag_117\n        /* \"#utility.yul\":1702:1707   */\n      dup2\n        /* \"#utility.yul\":1684:1708   */\n      tag_71\n      jump\t// in\n    tag_117:\n        /* \"#utility.yul\":1677:1682   */\n      dup2\n        /* \"#utility.yul\":1674:1709   */\n      eq\n        /* \"#utility.yul\":1664:1727   */\n      tag_118\n      jumpi\n        /* \"#utility.yul\":1723:1724   */\n      0x00\n        /* \"#utility.yul\":1720:1721   */\n      dup1\n        /* \"#utility.yul\":1713:1725   */\n      revert\n        /* \"#utility.yul\":1664:1727   */\n    tag_118:\n        /* \"#utility.yul\":1611:1733   */\n      pop\n      jump\t// out\n        /* \"#utility.yul\":1739:1878   */\n    tag_81:\n        /* \"#utility.yul\":1785:1790   */\n      0x00\n        /* \"#utility.yul\":1823:1829   */\n      dup2\n        /* \"#utility.yul\":1810:1830   */\n      calldataload\n        /* \"#utility.yul\":1801:1830   */\n      swap1\n      pop\n        /* \"#utility.yul\":1839:1872   */\n      tag_120\n        /* \"#utility.yul\":1866:1871   */\n      dup2\n        /* \"#utility.yul\":1839:1872   */\n      tag_80\n      jump\t// in\n    tag_120:\n        /* \"#utility.yul\":1739:1878   */\n      swap3\n      swap2\n      pop\n      pop\n      jump\t// out\n        /* \"#utility.yul\":1884:2213   */\n    tag_24:\n        /* \"#utility.yul\":1943:1949   */\n      0x00\n        /* \"#utility.yul\":1992:1994   */\n      0x20\n        /* \"#utility.yul\":1980:1989   */\n      dup3\n        /* \"#utility.yul\":1971:1978   */\n      dup5\n        /* \"#utility.yul\":1967:1990   */\n      sub\n        /* \"#utility.yul\":1963:1995   */\n      slt\n        /* \"#utility.yul\":1960:2079   */\n      iszero\n      tag_122\n      jumpi\n        /* \"#utility.yul\":1998:2077   */\n      tag_123\n      tag_74\n      jump\t// in\n    tag_123:\n        /* \"#utility.yul\":1960:2079   */\n    tag_122:\n        /* \"#utility.yul\":2118:2119   */\n      0x00\n        /* \"#utility.yul\":2143:2196   */\n      tag_124\n        /* \"#utility.yul\":2188:2195   */\n      dup5\n        /* \"#utility.yul\":2179:2185   */\n      dup3\n        /* \"#utility.yul\":2168:2177   */\n      dup6\n        /* \"#utility.yul\":2164:2186   */\n      add\n        /* \"#utility.yul\":2143:2196   */\n      tag_81\n      jump\t// in\n    tag_124:\n        /* \"#utility.yul\":2133:2196   */\n      swap2\n      pop\n        /* \"#utility.yul\":2089:2206   */\n      pop\n        /* \"#utility.yul\":1884:2213   */\n      swap3\n      swap2\n      pop\n      pop\n      jump\t// out\n        /* \"#utility.yul\":2219:2337   */\n    tag_82:\n        /* \"#utility.yul\":2306:2330   */\n      tag_126\n        /* \"#utility.yul\":2324:2329   */\n      dup2\n        /* \"#utility.yul\":2306:2330   */\n      tag_77\n      jump\t// in\n    tag_126:\n        /* \"#utility.yul\":2301:2304   */\n      dup3\n        /* \"#utility.yul\":2294:2331   */\n      mstore\n        /* \"#utility.yul\":2219:2337   */\n      pop\n      pop\n      jump\t// out\n        /* \"#utility.yul\":2343:2565   */\n    tag_34:\n        /* \"#utility.yul\":2436:2440   */\n      0x00\n        /* \"#utility.yul\":2474:2476   */\n      0x20\n        /* \"#utility.yul\":2463:2472   */\n      dup3\n        /* \"#utility.yul\":2459:2477   */\n      add\n        /* \"#utility.yul\":2451:2477   */\n      swap1\n      pop\n        /* \"#utility.yul\":2487:2558   */\n      tag_128\n        /* \"#utility.yul\":2555:2556   */\n      0x00\n        /* \"#utility.yul\":2544:2553   */\n      dup4\n        /* \"#utility.yul\":2540:2557   */\n      add\n        /* \"#utility.yul\":2531:2537   */\n      dup5\n        /* \"#utility.yul\":2487:2558   */\n      tag_82\n      jump\t// in\n    tag_128:\n        /* \"#utility.yul\":2343:2565   */\n      swap3\n      swap2\n      pop\n      pop\n      jump\t// out\n        /* \"#utility.yul\":2571:3045   */\n    tag_38:\n        /* \"#utility.yul\":2639:2645   */\n      0x00\n        /* \"#utility.yul\":2647:2653   */\n      dup1\n        /* \"#utility.yul\":2696:2698   */\n      0x40\n        /* \"#utility.yul\":2684:2693   */\n      dup4\n        /* \"#utility.yul\":2675:2682   */\n      dup6\n        /* \"#utility.yul\":2671:2694   */\n      sub\n        /* \"#utility.yul\":2667:2699   */\n      slt\n        /* \"#utility.yul\":2664:2783   */\n      iszero\n      tag_130\n      jumpi\n        /* \"#utility.yul\":2702:2781   */\n      tag_131\n      tag_74\n      jump\t// in\n    tag_131:\n        /* \"#utility.yul\":2664:2783   */\n    tag_130:\n        /* \"#utility.yul\":2822:2823   */\n      0x00\n        /* \"#utility.yul\":2847:2900   */\n      tag_132\n        /* \"#utility.yul\":2892:2899   */\n      dup6\n        /* \"#utility.yul\":2883:2889   */\n      dup3\n        /* \"#utility.yul\":2872:2881   */\n      dup7\n        /* \"#utility.yul\":2868:2890   */\n      add\n        /* \"#utility.yul\":2847:2900   */\n      tag_79\n      jump\t// in\n    tag_132:\n        /* \"#utility.yul\":2837:2900   */\n      swap3\n      pop\n        /* \"#utility.yul\":2793:2910   */\n      pop\n        /* \"#utility.yul\":2949:2951   */\n      0x20\n        /* \"#utility.yul\":2975:3028   */\n      tag_133\n        /* \"#utility.yul\":3020:3027   */\n      dup6\n        /* \"#utility.yul\":3011:3017   */\n      dup3\n        /* \"#utility.yul\":3000:3009   */\n      dup7\n        /* \"#utility.yul\":2996:3018   */\n      add\n        /* \"#utility.yul\":2975:3028   */\n      tag_81\n      jump\t// in\n    tag_133:\n        /* \"#utility.yul\":2965:3028   */\n      swap2\n      pop\n        /* \"#utility.yul\":2920:3038   */\n      pop\n        /* \"#utility.yul\":2571:3045   */\n      swap3\n      pop\n      swap3\n      swap1\n      pop\n      jump\t// out\n        /* \"#utility.yul\":3051:3220   */\n    tag_83:\n        /* \"#utility.yul\":3135:3146   */\n      0x00\n        /* \"#utility.yul\":3169:3175   */\n      dup3\n        /* \"#utility.yul\":3164:3167   */\n      dup3\n        /* \"#utility.yul\":3157:3176   */\n      mstore\n        /* \"#utility.yul\":3209:3213   */\n      0x20\n        /* \"#utility.yul\":3204:3207   */\n      dup3\n        /* \"#utility.yul\":3200:3214   */\n      add\n        /* \"#utility.yul\":3185:3214   */\n      swap1\n      pop\n        /* \"#utility.yul\":3051:3220   */\n      swap3\n      swap2\n      pop\n      pop\n      jump\t// out\n        /* \"#utility.yul\":3226:3402   */\n    tag_84:\n        /* \"#utility.yul\":3366:3394   */\n      0x4e6f207469656e65732073756669656374657320666f6e646f73000000000000\n        /* \"#utility.yul\":3362:3363   */\n      0x00\n        /* \"#utility.yul\":3354:3360   */\n      dup3\n        /* \"#utility.yul\":3350:3364   */\n      add\n        /* \"#utility.yul\":3343:3395   */\n      mstore\n        /* \"#utility.yul\":3226:3402   */\n      pop\n      jump\t// out\n        /* \"#utility.yul\":3408:3774   */\n    tag_85:\n        /* \"#utility.yul\":3550:3553   */\n      0x00\n        /* \"#utility.yul\":3571:3638   */\n      tag_137\n        /* \"#utility.yul\":3635:3637   */\n      0x1a\n        /* \"#utility.yul\":3630:3633   */\n      dup4\n        /* \"#utility.yul\":3571:3638   */\n      tag_83\n      jump\t// in\n    tag_137:\n        /* \"#utility.yul\":3564:3638   */\n      swap2\n      pop\n        /* \"#utility.yul\":3647:3740   */\n      tag_138\n        /* \"#utility.yul\":3736:3739   */\n      dup3\n        /* \"#utility.yul\":3647:3740   */\n      tag_84\n      jump\t// in\n    tag_138:\n        /* \"#utility.yul\":3765:3767   */\n      0x20\n        /* \"#utility.yul\":3760:3763   */\n      dup3\n        /* \"#utility.yul\":3756:3768   */\n      add\n        /* \"#utility.yul\":3749:3768   */\n      swap1\n      pop\n        /* \"#utility.yul\":3408:3774   */\n      swap2\n      swap1\n      pop\n      jump\t// out\n        /* \"#utility.yul\":3780:4199   */\n    tag_46:\n        /* \"#utility.yul\":3946:3950   */\n      0x00\n        /* \"#utility.yul\":3984:3986   */\n      0x20\n        /* \"#utility.yul\":3973:3982   */\n      dup3\n        /* \"#utility.yul\":3969:3987   */\n      add\n        /* \"#utility.yul\":3961:3987   */\n      swap1\n      pop\n        /* \"#utility.yul\":4033:4042   */\n      dup2\n        /* \"#utility.yul\":4027:4031   */\n      dup2\n        /* \"#utility.yul\":4023:4043   */\n      sub\n        /* \"#utility.yul\":4019:4020   */\n      0x00\n        /* \"#utility.yul\":4008:4017   */\n      dup4\n        /* \"#utility.yul\":4004:4021   */\n      add\n        /* \"#utility.yul\":3997:4044   */\n      mstore\n        /* \"#utility.yul\":4061:4192   */\n      tag_140\n        /* \"#utility.yul\":4187:4191   */\n      dup2\n        /* \"#utility.yul\":4061:4192   */\n      tag_85\n      jump\t// in\n    tag_140:\n        /* \"#utility.yul\":4053:4192   */\n      swap1\n      pop\n        /* \"#utility.yul\":3780:4199   */\n      swap2\n      swap1\n      pop\n      jump\t// out\n        /* \"#utility.yul\":4205:4385   */\n    tag_86:\n        /* \"#utility.yul\":4253:4330   */\n      0x4e487b7100000000000000000000000000000000000000000000000000000000\n        /* \"#utility.yul\":4250:4251   */\n      0x00\n        /* \"#utility.yul\":4243:4331   */\n      mstore\n        /* \"#utility.yul\":4350:4354   */\n      0x11\n        /* \"#utility.yul\":4347:4348   */\n      0x04\n        /* \"#utility.yul\":4340:4355   */\n      mstore\n        /* \"#utility.yul\":4374:4378   */\n      0x24\n        /* \"#utility.yul\":4371:4372   */\n      0x00\n        /* \"#utility.yul\":4364:4379   */\n      revert\n        /* \"#utility.yul\":4391:4585   */\n    tag_48:\n        /* \"#utility.yul\":4431:4435   */\n      0x00\n        /* \"#utility.yul\":4451:4471   */\n      tag_143\n        /* \"#utility.yul\":4469:4470   */\n      dup3\n        /* \"#utility.yul\":4451:4471   */\n      tag_71\n      jump\t// in\n    tag_143:\n        /* \"#utility.yul\":4446:4471   */\n      swap2\n      pop\n        /* \"#utility.yul\":4485:4505   */\n      tag_144\n        /* \"#utility.yul\":4503:4504   */\n      dup4\n        /* \"#utility.yul\":4485:4505   */\n      tag_71\n      jump\t// in\n    tag_144:\n        /* \"#utility.yul\":4480:4505   */\n      swap3\n      pop\n        /* \"#utility.yul\":4529:4530   */\n      dup3\n        /* \"#utility.yul\":4526:4527   */\n      dup3\n        /* \"#utility.yul\":4522:4531   */\n      sub\n        /* \"#utility.yul\":4514:4531   */\n      swap1\n      pop\n        /* \"#utility.yul\":4553:4554   */\n      dup2\n        /* \"#utility.yul\":4547:4551   */\n      dup2\n        /* \"#utility.yul\":4544:4555   */\n      gt\n        /* \"#utility.yul\":4541:4578   */\n      iszero\n      tag_145\n      jumpi\n        /* \"#utility.yul\":4558:4576   */\n      tag_146\n      tag_86\n      jump\t// in\n    tag_146:\n        /* \"#utility.yul\":4541:4578   */\n    tag_145:\n        /* \"#utility.yul\":4391:4585   */\n      swap3\n      swap2\n      pop\n      pop\n      jump\t// out\n        /* \"#utility.yul\":4591:4760   */\n    tag_87:\n        /* \"#utility.yul\":4731:4752   */\n      0x6e6f206573746173206175746f72697a61646f00000000000000000000000000\n        /* \"#utility.yul\":4727:4728   */\n      0x00\n        /* \"#utility.yul\":4719:4725   */\n      dup3\n        /* \"#utility.yul\":4715:4729   */\n      add\n        /* \"#utility.yul\":4708:4753   */\n      mstore\n        /* \"#utility.yul\":4591:4760   */\n      pop\n      jump\t// out\n        /* \"#utility.yul\":4766:5132   */\n    tag_88:\n        /* \"#utility.yul\":4908:4911   */\n      0x00\n        /* \"#utility.yul\":4929:4996   */\n      tag_149\n        /* \"#utility.yul\":4993:4995   */\n      0x13\n        /* \"#utility.yul\":4988:4991   */\n      dup4\n        /* \"#utility.yul\":4929:4996   */\n      tag_83\n      jump\t// in\n    tag_149:\n        /* \"#utility.yul\":4922:4996   */\n      swap2\n      pop\n        /* \"#utility.yul\":5005:5098   */\n      tag_150\n        /* \"#utility.yul\":5094:5097   */\n      dup3\n        /* \"#utility.yul\":5005:5098   */\n      tag_87\n      jump\t// in\n    tag_150:\n        /* \"#utility.yul\":5123:5125   */\n      0x20\n        /* \"#utility.yul\":5118:5121   */\n      dup3\n        /* \"#utility.yul\":5114:5126   */\n      add\n        /* \"#utility.yul\":5107:5126   */\n      swap1\n      pop\n        /* \"#utility.yul\":4766:5132   */\n      swap2\n      swap1\n      pop\n      jump\t// out\n        /* \"#utility.yul\":5138:5557   */\n    tag_54:\n        /* \"#utility.yul\":5304:5308   */\n      0x00\n        /* \"#utility.yul\":5342:5344   */\n      0x20\n        /* \"#utility.yul\":5331:5340   */\n      dup3\n        /* \"#utility.yul\":5327:5345   */\n      add\n        /* \"#utility.yul\":5319:5345   */\n      swap1\n      pop\n        /* \"#utility.yul\":5391:5400   */\n      dup2\n        /* \"#utility.yul\":5385:5389   */\n      dup2\n        /* \"#utility.yul\":5381:5401   */\n      sub\n        /* \"#utility.yul\":5377:5378   */\n      0x00\n        /* \"#utility.yul\":5366:5375   */\n      dup4\n        /* \"#utility.yul\":5362:5379   */\n      add\n        /* \"#utility.yul\":5355:5402   */\n      mstore\n        /* \"#utility.yul\":5419:5550   */\n      tag_152\n        /* \"#utility.yul\":5545:5549   */\n      dup2\n        /* \"#utility.yul\":5419:5550   */\n      tag_88\n      jump\t// in\n    tag_152:\n        /* \"#utility.yul\":5411:5550   */\n      swap1\n      pop\n        /* \"#utility.yul\":5138:5557   */\n      swap2\n      swap1\n      pop\n      jump\t// out\n        /* \"#utility.yul\":5563:5731   */\n    tag_89:\n        /* \"#utility.yul\":5703:5723   */\n      0x446972656363696f6e20696e76616c6964610000000000000000000000000000\n        /* \"#utility.yul\":5699:5700   */\n      0x00\n        /* \"#utility.yul\":5691:5697   */\n      dup3\n        /* \"#utility.yul\":5687:5701   */\n      add\n        /* \"#utility.yul\":5680:5724   */\n      mstore\n        /* \"#utility.yul\":5563:5731   */\n      pop\n      jump\t// out\n        /* \"#utility.yul\":5737:6103   */\n    tag_90:\n        /* \"#utility.yul\":5879:5882   */\n      0x00\n        /* \"#utility.yul\":5900:5967   */\n      tag_155\n        /* \"#utility.yul\":5964:5966   */\n      0x12\n        /* \"#utility.yul\":5959:5962   */\n      dup4\n        /* \"#utility.yul\":5900:5967   */\n      tag_83\n      jump\t// in\n    tag_155:\n        /* \"#utility.yul\":5893:5967   */\n      swap2\n      pop\n        /* \"#utility.yul\":5976:6069   */\n      tag_156\n        /* \"#utility.yul\":6065:6068   */\n      dup3\n        /* \"#utility.yul\":5976:6069   */\n      tag_89\n      jump\t// in\n    tag_156:\n        /* \"#utility.yul\":6094:6096   */\n      0x20\n        /* \"#utility.yul\":6089:6092   */\n      dup3\n        /* \"#utility.yul\":6085:6097   */\n      add\n        /* \"#utility.yul\":6078:6097   */\n      swap1\n      pop\n        /* \"#utility.yul\":5737:6103   */\n      swap2\n      swap1\n      pop\n      jump\t// out\n        /* \"#utility.yul\":6109:6528   */\n    tag_59:\n        /* \"#utility.yul\":6275:6279   */\n      0x00\n        /* \"#utility.yul\":6313:6315   */\n      0x20\n        /* \"#utility.yul\":6302:6311   */\n      dup3\n        /* \"#utility.yul\":6298:6316   */\n      add\n        /* \"#utility.yul\":6290:6316   */\n      swap1\n      pop\n        /* \"#utility.yul\":6362:6371   */\n      dup2\n        /* \"#utility.yul\":6356:6360   */\n      dup2\n        /* \"#utility.yul\":6352:6372   */\n      sub\n        /* \"#utility.yul\":6348:6349   */\n      0x00\n        /* \"#utility.yul\":6337:6346   */\n      dup4\n        /* \"#utility.yul\":6333:6350   */\n      add\n        /* \"#utility.yul\":6326:6373   */\n      mstore\n        /* \"#utility.yul\":6390:6521   */\n      tag_158\n        /* \"#utility.yul\":6516:6520   */\n      dup2\n        /* \"#utility.yul\":6390:6521   */\n      tag_90\n      jump\t// in\n    tag_158:\n        /* \"#utility.yul\":6382:6521   */\n      swap1\n      pop\n        /* \"#utility.yul\":6109:6528   */\n      swap2\n      swap1\n      pop\n      jump\t// out\n        /* \"#utility.yul\":6534:6704   */\n    tag_91:\n        /* \"#utility.yul\":6674:6696   */\n      0x666f6e646f7320696e737566696369656e746573000000000000000000000000\n        /* \"#utility.yul\":6670:6671   */\n      0x00\n        /* \"#utility.yul\":6662:6668   */\n      dup3\n        /* \"#utility.yul\":6658:6672   */\n      add\n        /* \"#utility.yul\":6651:6697   */\n      mstore\n        /* \"#utility.yul\":6534:6704   */\n      pop\n      jump\t// out\n        /* \"#utility.yul\":6710:7076   */\n    tag_92:\n        /* \"#utility.yul\":6852:6855   */\n      0x00\n        /* \"#utility.yul\":6873:6940   */\n      tag_161\n        /* \"#utility.yul\":6937:6939   */\n      0x14\n        /* \"#utility.yul\":6932:6935   */\n      dup4\n        /* \"#utility.yul\":6873:6940   */\n      tag_83\n      jump\t// in\n    tag_161:\n        /* \"#utility.yul\":6866:6940   */\n      swap2\n      pop\n        /* \"#utility.yul\":6949:7042   */\n      tag_162\n        /* \"#utility.yul\":7038:7041   */\n      dup3\n        /* \"#utility.yul\":6949:7042   */\n      tag_91\n      jump\t// in\n    tag_162:\n        /* \"#utility.yul\":7067:7069   */\n      0x20\n        /* \"#utility.yul\":7062:7065   */\n      dup3\n        /* \"#utility.yul\":7058:7070   */\n      add\n        /* \"#utility.yul\":7051:7070   */\n      swap1\n      pop\n        /* \"#utility.yul\":6710:7076   */\n      swap2\n      swap1\n      pop\n      jump\t// out\n        /* \"#utility.yul\":7082:7501   */\n    tag_62:\n        /* \"#utility.yul\":7248:7252   */\n      0x00\n        /* \"#utility.yul\":7286:7288   */\n      0x20\n        /* \"#utility.yul\":7275:7284   */\n      dup3\n        /* \"#utility.yul\":7271:7289   */\n      add\n        /* \"#utility.yul\":7263:7289   */\n      swap1\n      pop\n        /* \"#utility.yul\":7335:7344   */\n      dup2\n        /* \"#utility.yul\":7329:7333   */\n      dup2\n        /* \"#utility.yul\":7325:7345   */\n      sub\n        /* \"#utility.yul\":7321:7322   */\n      0x00\n        /* \"#utility.yul\":7310:7319   */\n      dup4\n        /* \"#utility.yul\":7306:7323   */\n      add\n        /* \"#utility.yul\":7299:7346   */\n      mstore\n        /* \"#utility.yul\":7363:7494   */\n      tag_164\n        /* \"#utility.yul\":7489:7493   */\n      dup2\n        /* \"#utility.yul\":7363:7494   */\n      tag_92\n      jump\t// in\n    tag_164:\n        /* \"#utility.yul\":7355:7494   */\n      swap1\n      pop\n        /* \"#utility.yul\":7082:7501   */\n      swap2\n      swap1\n      pop\n      jump\t// out\n        /* \"#utility.yul\":7507:7698   */\n    tag_65:\n        /* \"#utility.yul\":7547:7550   */\n      0x00\n        /* \"#utility.yul\":7566:7586   */\n      tag_166\n        /* \"#utility.yul\":7584:7585   */\n      dup3\n        /* \"#utility.yul\":7566:7586   */\n      tag_71\n      jump\t// in\n    tag_166:\n        /* \"#utility.yul\":7561:7586   */\n      swap2\n      pop\n        /* \"#utility.yul\":7600:7620   */\n      tag_167\n        /* \"#utility.yul\":7618:7619   */\n      dup4\n        /* \"#utility.yul\":7600:7620   */\n      tag_71\n      jump\t// in\n    tag_167:\n        /* \"#utility.yul\":7595:7620   */\n      swap3\n      pop\n        /* \"#utility.yul\":7643:7644   */\n      dup3\n        /* \"#utility.yul\":7640:7641   */\n      dup3\n        /* \"#utility.yul\":7636:7645   */\n      add\n        /* \"#utility.yul\":7629:7645   */\n      swap1\n      pop\n        /* \"#utility.yul\":7664:7667   */\n      dup1\n        /* \"#utility.yul\":7661:7662   */\n      dup3\n        /* \"#utility.yul\":7658:7668   */\n      gt\n        /* \"#utility.yul\":7655:7691   */\n      iszero\n      tag_168\n      jumpi\n        /* \"#utility.yul\":7671:7689   */\n      tag_169\n      tag_86\n      jump\t// in\n    tag_169:\n        /* \"#utility.yul\":7655:7691   */\n    tag_168:\n        /* \"#utility.yul\":7507:7698   */\n      swap3\n      swap2\n      pop\n      pop\n      jump\t// out\n        /* \"#utility.yul\":7704:7870   */\n    tag_93:\n        /* \"#utility.yul\":7844:7862   */\n      0x646562657320656e766961722045544800000000000000000000000000000000\n        /* \"#utility.yul\":7840:7841   */\n      0x00\n        /* \"#utility.yul\":7832:7838   */\n      dup3\n        /* \"#utility.yul\":7828:7842   */\n      add\n        /* \"#utility.yul\":7821:7863   */\n      mstore\n        /* \"#utility.yul\":7704:7870   */\n      pop\n      jump\t// out\n        /* \"#utility.yul\":7876:8242   */\n    tag_94:\n        /* \"#utility.yul\":8018:8021   */\n      0x00\n        /* \"#utility.yul\":8039:8106   */\n      tag_172\n        /* \"#utility.yul\":8103:8105   */\n      0x10\n        /* \"#utility.yul\":8098:8101   */\n      dup4\n        /* \"#utility.yul\":8039:8106   */\n      tag_83\n      jump\t// in\n    tag_172:\n        /* \"#utility.yul\":8032:8106   */\n      swap2\n      pop\n        /* \"#utility.yul\":8115:8208   */\n      tag_173\n        /* \"#utility.yul\":8204:8207   */\n      dup3\n        /* \"#utility.yul\":8115:8208   */\n      tag_93\n      jump\t// in\n    tag_173:\n        /* \"#utility.yul\":8233:8235   */\n      0x20\n        /* \"#utility.yul\":8228:8231   */\n      dup3\n        /* \"#utility.yul\":8224:8236   */\n      add\n        /* \"#utility.yul\":8217:8236   */\n      swap1\n      pop\n        /* \"#utility.yul\":7876:8242   */\n      swap2\n      swap1\n      pop\n      jump\t// out\n        /* \"#utility.yul\":8248:8667   */\n    tag_69:\n        /* \"#utility.yul\":8414:8418   */\n      0x00\n        /* \"#utility.yul\":8452:8454   */\n      0x20\n        /* \"#utility.yul\":8441:8450   */\n      dup3\n        /* \"#utility.yul\":8437:8455   */\n      add\n        /* \"#utility.yul\":8429:8455   */\n      swap1\n      pop\n        /* \"#utility.yul\":8501:8510   */\n      dup2\n        /* \"#utility.yul\":8495:8499   */\n      dup2\n        /* \"#utility.yul\":8491:8511   */\n      sub\n        /* \"#utility.yul\":8487:8488   */\n      0x00\n        /* \"#utility.yul\":8476:8485   */\n      dup4\n        /* \"#utility.yul\":8472:8489   */\n      add\n        /* \"#utility.yul\":8465:8512   */\n      mstore\n        /* \"#utility.yul\":8529:8660   */\n      tag_175\n        /* \"#utility.yul\":8655:8659   */\n      dup2\n        /* \"#utility.yul\":8529:8660   */\n      tag_94\n      jump\t// in\n    tag_175:\n        /* \"#utility.yul\":8521:8660   */\n      swap1\n      pop\n        /* \"#utility.yul\":8248:8667   */\n      swap2\n      swap1\n      pop\n      jump\t// out\n\n    auxdata: 0xa2646970667358221220ec2f2e8d22468615845a2f77787d41539f2488bff175554eafd2e374be28b23f64736f6c63430008180033\n}\n",
				"bytecode": {
					"linkReferences": {},
					"object": "608060405234801561000f575f80fd5b503360015f6101000a81548173ffffffffffffffffffffffffffffffffffffffff021916908373ffffffffffffffffffffffffffffffffffffffff160217905550610a328061005d5f395ff3fe60806040526004361061006f575f3560e01c80636f9fb98a1161004d5780636f9fb98a146101015780638da5cb5b1461012b578063a9059cbb14610155578063d0e30db01461017d5761006f565b806312065fe01461007357806327e235e31461009d5780632e1a7d4d146100d9575b5f80fd5b34801561007e575f80fd5b50610087610187565b60405161009491906105f4565b60405180910390f35b3480156100a8575f80fd5b506100c360048036038101906100be919061066b565b6101ca565b6040516100d091906105f4565b60405180910390f35b3480156100e4575f80fd5b506100ff60048036038101906100fa91906106c0565b6101de565b005b34801561010c575f80fd5b506101156102f6565b60405161012291906105f4565b60405180910390f35b348015610136575f80fd5b5061013f61038c565b60405161014c91906106fa565b60405180910390f35b348015610160575f80fd5b5061017b60048036038101906101769190610713565b6103b1565b005b610185610546565b005b5f805f3373ffffffffffffffffffffffffffffffffffffffff1673ffffffffffffffffffffffffffffffffffffffff1681526020019081526020015f2054905090565b5f602052805f5260405f205f915090505481565b805f803373ffffffffffffffffffffffffffffffffffffffff1673ffffffffffffffffffffffffffffffffffffffff1681526020019081526020015f2054101561025d576040517f08c379a0000000000000000000000000000000000000000000000000000000008152600401610254906107ab565b60405180910390fd5b805f803373ffffffffffffffffffffffffffffffffffffffff1673ffffffffffffffffffffffffffffffffffffffff1681526020019081526020015f205f8282546102a891906107f6565b925050819055503373ffffffffffffffffffffffffffffffffffffffff166108fc8290811502906040515f60405180830381858888f193505050501580156102f2573d5f803e3d5ffd5b5050565b5f60015f9054906101000a900473ffffffffffffffffffffffffffffffffffffffff1673ffffffffffffffffffffffffffffffffffffffff163373ffffffffffffffffffffffffffffffffffffffff1614610386576040517f08c379a000000000000000000000000000000000000000000000000000000000815260040161037d90610873565b60405180910390fd5b47905090565b60015f9054906101000a900473ffffffffffffffffffffffffffffffffffffffff1681565b5f73ffffffffffffffffffffffffffffffffffffffff168273ffffffffffffffffffffffffffffffffffffffff160361041f576040517f08c379a0000000000000000000000000000000000000000000000000000000008152600401610416906108db565b60405180910390fd5b805f803373ffffffffffffffffffffffffffffffffffffffff1673ffffffffffffffffffffffffffffffffffffffff1681526020019081526020015f2054101561049e576040517f08c379a000000000000000000000000000000000000000000000000000000000815260040161049590610943565b60405180910390fd5b805f803373ffffffffffffffffffffffffffffffffffffffff1673ffffffffffffffffffffffffffffffffffffffff1681526020019081526020015f205f8282546104e991906107f6565b92505081905550805f808473ffffffffffffffffffffffffffffffffffffffff1673ffffffffffffffffffffffffffffffffffffffff1681526020019081526020015f205f82825461053b9190610961565b925050819055505050565b5f3411610588576040517f08c379a000000000000000000000000000000000000000000000000000000000815260040161057f906109de565b60405180910390fd5b345f803373ffffffffffffffffffffffffffffffffffffffff1673ffffffffffffffffffffffffffffffffffffffff1681526020019081526020015f205f8282546105d39190610961565b92505081905550565b5f819050919050565b6105ee816105dc565b82525050565b5f6020820190506106075f8301846105e5565b92915050565b5f80fd5b5f73ffffffffffffffffffffffffffffffffffffffff82169050919050565b5f61063a82610611565b9050919050565b61064a81610630565b8114610654575f80fd5b50565b5f8135905061066581610641565b92915050565b5f602082840312156106805761067f61060d565b5b5f61068d84828501610657565b91505092915050565b61069f816105dc565b81146106a9575f80fd5b50565b5f813590506106ba81610696565b92915050565b5f602082840312156106d5576106d461060d565b5b5f6106e2848285016106ac565b91505092915050565b6106f481610630565b82525050565b5f60208201905061070d5f8301846106eb565b92915050565b5f80604083850312156107295761072861060d565b5b5f61073685828601610657565b9250506020610747858286016106ac565b9150509250929050565b5f82825260208201905092915050565b7f4e6f207469656e65732073756669656374657320666f6e646f730000000000005f82015250565b5f610795601a83610751565b91506107a082610761565b602082019050919050565b5f6020820190508181035f8301526107c281610789565b9050919050565b7f4e487b71000000000000000000000000000000000000000000000000000000005f52601160045260245ffd5b5f610800826105dc565b915061080b836105dc565b9250828203905081811115610823576108226107c9565b5b92915050565b7f6e6f206573746173206175746f72697a61646f000000000000000000000000005f82015250565b5f61085d601383610751565b915061086882610829565b602082019050919050565b5f6020820190508181035f83015261088a81610851565b9050919050565b7f446972656363696f6e20696e76616c69646100000000000000000000000000005f82015250565b5f6108c5601283610751565b91506108d082610891565b602082019050919050565b5f6020820190508181035f8301526108f2816108b9565b9050919050565b7f666f6e646f7320696e737566696369656e7465730000000000000000000000005f82015250565b5f61092d601483610751565b9150610938826108f9565b602082019050919050565b5f6020820190508181035f83015261095a81610921565b9050919050565b5f61096b826105dc565b9150610976836105dc565b925082820190508082111561098e5761098d6107c9565b5b92915050565b7f646562657320656e7669617220455448000000000000000000000000000000005f82015250565b5f6109c8601083610751565b91506109d382610994565b602082019050919050565b5f6020820190508181035f8301526109f5816109bc565b905091905056fea2646970667358221220ec2f2e8d22468615845a2f77787d41539f2488bff175554eafd2e374be28b23f64736f6c63430008180033",
					"opcodes": "PUSH1 0x80 PUSH1 0x40 MSTORE CALLVALUE DUP1 ISZERO PUSH2 0xF JUMPI PUSH0 DUP1 REVERT JUMPDEST POP CALLER PUSH1 0x1 PUSH0 PUSH2 0x100 EXP DUP2 SLOAD DUP2 PUSH20 0xFFFFFFFFFFFFFFFFFFFFFFFFFFFFFFFFFFFFFFFF MUL NOT AND SWAP1 DUP4 PUSH20 0xFFFFFFFFFFFFFFFFFFFFFFFFFFFFFFFFFFFFFFFF AND MUL OR SWAP1 SSTORE POP PUSH2 0xA32 DUP1 PUSH2 0x5D PUSH0 CODECOPY PUSH0 RETURN INVALID PUSH1 0x80 PUSH1 0x40 MSTORE PUSH1 0x4 CALLDATASIZE LT PUSH2 0x6F JUMPI PUSH0 CALLDATALOAD PUSH1 0xE0 SHR DUP1 PUSH4 0x6F9FB98A GT PUSH2 0x4D JUMPI DUP1 PUSH4 0x6F9FB98A EQ PUSH2 0x101 JUMPI DUP1 PUSH4 0x8DA5CB5B EQ PUSH2 0x12B JUMPI DUP1 PUSH4 0xA9059CBB EQ PUSH2 0x155 JUMPI DUP1 PUSH4 0xD0E30DB0 EQ PUSH2 0x17D JUMPI PUSH2 0x6F JUMP JUMPDEST DUP1 PUSH4 0x12065FE0 EQ PUSH2 0x73 JUMPI DUP1 PUSH4 0x27E235E3 EQ PUSH2 0x9D JUMPI DUP1 PUSH4 0x2E1A7D4D EQ PUSH2 0xD9 JUMPI JUMPDEST PUSH0 DUP1 REVERT JUMPDEST CALLVALUE DUP1 ISZERO PUSH2 0x7E JUMPI PUSH0 DUP1 REVERT JUMPDEST POP PUSH2 0x87 PUSH2 0x187 JUMP JUMPDEST PUSH1 0x40 MLOAD PUSH2 0x94 SWAP2 SWAP1 PUSH2 0x5F4 JUMP JUMPDEST PUSH1 0x40 MLOAD DUP1 SWAP2 SUB SWAP1 RETURN JUMPDEST CALLVALUE DUP1 ISZERO PUSH2 0xA8 JUMPI PUSH0 DUP1 REVERT JUMPDEST POP PUSH2 0xC3 PUSH1 0x4 DUP1 CALLDATASIZE SUB DUP2 ADD SWAP1 PUSH2 0xBE SWAP2 SWAP1 PUSH2 0x66B JUMP JUMPDEST PUSH2 0x1CA JUMP JUMPDEST PUSH1 0x40 MLOAD PUSH2 0xD0 SWAP2 SWAP1 PUSH2 0x5F4 JUMP JUMPDEST PUSH1 0x40 MLOAD DUP1 SWAP2 SUB SWAP1 RETURN JUMPDEST CALLVALUE DUP1 ISZERO PUSH2 0xE4 JUMPI PUSH0 DUP1 REVERT JUMPDEST POP PUSH2 0xFF PUSH1 0x4 DUP1 CALLDATASIZE SUB DUP2 ADD SWAP1 PUSH2 0xFA SWAP2 SWAP1 PUSH2 0x6C0 JUMP JUMPDEST PUSH2 0x1DE JUMP JUMPDEST STOP JUMPDEST CALLVALUE DUP1 ISZERO PUSH2 0x10C JUMPI PUSH0 DUP1 REVERT JUMPDEST POP PUSH2 0x115 PUSH2 0x2F6 JUMP JUMPDEST PUSH1 0x40 MLOAD PUSH2 0x122 SWAP2 SWAP1 PUSH2 0x5F4 JUMP JUMPDEST PUSH1 0x40 MLOAD DUP1 SWAP2 SUB SWAP1 RETURN JUMPDEST CALLVALUE DUP1 ISZERO PUSH2 0x136 JUMPI PUSH0 DUP1 REVERT JUMPDEST POP PUSH2 0x13F PUSH2 0x38C JUMP JUMPDEST PUSH1 0x40 MLOAD PUSH2 0x14C SWAP2 SWAP1 PUSH2 0x6FA JUMP JUMPDEST PUSH1 0x40 MLOAD DUP1 SWAP2 SUB SWAP1 RETURN JUMPDEST CALLVALUE DUP1 ISZERO PUSH2 0x160 JUMPI PUSH0 DUP1 REVERT JUMPDEST POP PUSH2 0x17B PUSH1 0x4 DUP1 CALLDATASIZE SUB DUP2 ADD SWAP1 PUSH2 0x176 SWAP2 SWAP1 PUSH2 0x713 JUMP JUMPDEST PUSH2 0x3B1 JUMP JUMPDEST STOP JUMPDEST PUSH2 0x185 PUSH2 0x546 JUMP JUMPDEST STOP JUMPDEST PUSH0 DUP1 PUSH0 CALLER PUSH20 0xFFFFFFFFFFFFFFFFFFFFFFFFFFFFFFFFFFFFFFFF AND PUSH20 0xFFFFFFFFFFFFFFFFFFFFFFFFFFFFFFFFFFFFFFFF AND DUP2 MSTORE PUSH1 0x20 ADD SWAP1 DUP2 MSTORE PUSH1 0x20 ADD PUSH0 KECCAK256 SLOAD SWAP1 POP SWAP1 JUMP JUMPDEST PUSH0 PUSH1 0x20 MSTORE DUP1 PUSH0 MSTORE PUSH1 0x40 PUSH0 KECCAK256 PUSH0 SWAP2 POP SWAP1 POP SLOAD DUP2 JUMP JUMPDEST DUP1 PUSH0 DUP1 CALLER PUSH20 0xFFFFFFFFFFFFFFFFFFFFFFFFFFFFFFFFFFFFFFFF AND PUSH20 0xFFFFFFFFFFFFFFFFFFFFFFFFFFFFFFFFFFFFFFFF AND DUP2 MSTORE PUSH1 0x20 ADD SWAP1 DUP2 MSTORE PUSH1 0x20 ADD PUSH0 KECCAK256 SLOAD LT ISZERO PUSH2 0x25D JUMPI PUSH1 0x40 MLOAD PUSH32 0x8C379A000000000000000000000000000000000000000000000000000000000 DUP2 MSTORE PUSH1 0x4 ADD PUSH2 0x254 SWAP1 PUSH2 0x7AB JUMP JUMPDEST PUSH1 0x40 MLOAD DUP1 SWAP2 SUB SWAP1 REVERT JUMPDEST DUP1 PUSH0 DUP1 CALLER PUSH20 0xFFFFFFFFFFFFFFFFFFFFFFFFFFFFFFFFFFFFFFFF AND PUSH20 0xFFFFFFFFFFFFFFFFFFFFFFFFFFFFFFFFFFFFFFFF AND DUP2 MSTORE PUSH1 0x20 ADD SWAP1 DUP2 MSTORE PUSH1 0x20 ADD PUSH0 KECCAK256 PUSH0 DUP3 DUP3 SLOAD PUSH2 0x2A8 SWAP2 SWAP1 PUSH2 0x7F6 JUMP JUMPDEST SWAP3 POP POP DUP2 SWAP1 SSTORE POP CALLER PUSH20 0xFFFFFFFFFFFFFFFFFFFFFFFFFFFFFFFFFFFFFFFF AND PUSH2 0x8FC DUP3 SWAP1 DUP2 ISZERO MUL SWAP1 PUSH1 0x40 MLOAD PUSH0 PUSH1 0x40 MLOAD DUP1 DUP4 SUB DUP2 DUP6 DUP9 DUP9 CALL SWAP4 POP POP POP POP ISZERO DUP1 ISZERO PUSH2 0x2F2 JUMPI RETURNDATASIZE PUSH0 DUP1 RETURNDATACOPY RETURNDATASIZE PUSH0 REVERT JUMPDEST POP POP JUMP JUMPDEST PUSH0 PUSH1 0x1 PUSH0 SWAP1 SLOAD SWAP1 PUSH2 0x100 EXP SWAP1 DIV PUSH20 0xFFFFFFFFFFFFFFFFFFFFFFFFFFFFFFFFFFFFFFFF AND PUSH20 0xFFFFFFFFFFFFFFFFFFFFFFFFFFFFFFFFFFFFFFFF AND CALLER PUSH20 0xFFFFFFFFFFFFFFFFFFFFFFFFFFFFFFFFFFFFFFFF AND EQ PUSH2 0x386 JUMPI PUSH1 0x40 MLOAD PUSH32 0x8C379A000000000000000000000000000000000000000000000000000000000 DUP2 MSTORE PUSH1 0x4 ADD PUSH2 0x37D SWAP1 PUSH2 0x873 JUMP JUMPDEST PUSH1 0x40 MLOAD DUP1 SWAP2 SUB SWAP1 REVERT JUMPDEST SELFBALANCE SWAP1 POP SWAP1 JUMP JUMPDEST PUSH1 0x1 PUSH0 SWAP1 SLOAD SWAP1 PUSH2 0x100 EXP SWAP1 DIV PUSH20 0xFFFFFFFFFFFFFFFFFFFFFFFFFFFFFFFFFFFFFFFF AND DUP2 JUMP JUMPDEST PUSH0 PUSH20 0xFFFFFFFFFFFFFFFFFFFFFFFFFFFFFFFFFFFFFFFF AND DUP3 PUSH20 0xFFFFFFFFFFFFFFFFFFFFFFFFFFFFFFFFFFFFFFFF AND SUB PUSH2 0x41F JUMPI PUSH1 0x40 MLOAD PUSH32 0x8C379A000000000000000000000000000000000000000000000000000000000 DUP2 MSTORE PUSH1 0x4 ADD PUSH2 0x416 SWAP1 PUSH2 0x8DB JUMP JUMPDEST PUSH1 0x40 MLOAD DUP1 SWAP2 SUB SWAP1 REVERT JUMPDEST DUP1 PUSH0 DUP1 CALLER PUSH20 0xFFFFFFFFFFFFFFFFFFFFFFFFFFFFFFFFFFFFFFFF AND PUSH20 0xFFFFFFFFFFFFFFFFFFFFFFFFFFFFFFFFFFFFFFFF AND DUP2 MSTORE PUSH1 0x20 ADD SWAP1 DUP2 MSTORE PUSH1 0x20 ADD PUSH0 KECCAK256 SLOAD LT ISZERO PUSH2 0x49E JUMPI PUSH1 0x40 MLOAD PUSH32 0x8C379A000000000000000000000000000000000000000000000000000000000 DUP2 MSTORE PUSH1 0x4 ADD PUSH2 0x495 SWAP1 PUSH2 0x943 JUMP JUMPDEST PUSH1 0x40 MLOAD DUP1 SWAP2 SUB SWAP1 REVERT JUMPDEST DUP1 PUSH0 DUP1 CALLER PUSH20 0xFFFFFFFFFFFFFFFFFFFFFFFFFFFFFFFFFFFFFFFF AND PUSH20 0xFFFFFFFFFFFFFFFFFFFFFFFFFFFFFFFFFFFFFFFF AND DUP2 MSTORE PUSH1 0x20 ADD SWAP1 DUP2 MSTORE PUSH1 0x20 ADD PUSH0 KECCAK256 PUSH0 DUP3 DUP3 SLOAD PUSH2 0x4E9 SWAP2 SWAP1 PUSH2 0x7F6 JUMP JUMPDEST SWAP3 POP POP DUP2 SWAP1 SSTORE POP DUP1 PUSH0 DUP1 DUP5 PUSH20 0xFFFFFFFFFFFFFFFFFFFFFFFFFFFFFFFFFFFFFFFF AND PUSH20 0xFFFFFFFFFFFFFFFFFFFFFFFFFFFFFFFFFFFFFFFF AND DUP2 MSTORE PUSH1 0x20 ADD SWAP1 DUP2 MSTORE PUSH1 0x20 ADD PUSH0 KECCAK256 PUSH0 DUP3 DUP3 SLOAD PUSH2 0x53B SWAP2 SWAP1 PUSH2 0x961 JUMP JUMPDEST SWAP3 POP POP DUP2 SWAP1 SSTORE POP POP POP JUMP JUMPDEST PUSH0 CALLVALUE GT PUSH2 0x588 JUMPI PUSH1 0x40 MLOAD PUSH32 0x8C379A000000000000000000000000000000000000000000000000000000000 DUP2 MSTORE PUSH1 0x4 ADD PUSH2 0x57F SWAP1 PUSH2 0x9DE JUMP JUMPDEST PUSH1 0x40 MLOAD DUP1 SWAP2 SUB SWAP1 REVERT JUMPDEST CALLVALUE PUSH0 DUP1 CALLER PUSH20 0xFFFFFFFFFFFFFFFFFFFFFFFFFFFFFFFFFFFFFFFF AND PUSH20 0xFFFFFFFFFFFFFFFFFFFFFFFFFFFFFFFFFFFFFFFF AND DUP2 MSTORE PUSH1 0x20 ADD SWAP1 DUP2 MSTORE PUSH1 0x20 ADD PUSH0 KECCAK256 PUSH0 DUP3 DUP3 SLOAD PUSH2 0x5D3 SWAP2 SWAP1 PUSH2 0x961 JUMP JUMPDEST SWAP3 POP POP DUP2 SWAP1 SSTORE POP JUMP JUMPDEST PUSH0 DUP2 SWAP1 POP SWAP2 SWAP1 POP JUMP JUMPDEST PUSH2 0x5EE DUP2 PUSH2 0x5DC JUMP JUMPDEST DUP3 MSTORE POP POP JUMP JUMPDEST PUSH0 PUSH1 0x20 DUP3 ADD SWAP1 POP PUSH2 0x607 PUSH0 DUP4 ADD DUP5 PUSH2 0x5E5 JUMP JUMPDEST SWAP3 SWAP2 POP POP JUMP JUMPDEST PUSH0 DUP1 REVERT JUMPDEST PUSH0 PUSH20 0xFFFFFFFFFFFFFFFFFFFFFFFFFFFFFFFFFFFFFFFF DUP3 AND SWAP1 POP SWAP2 SWAP1 POP JUMP JUMPDEST PUSH0 PUSH2 0x63A DUP3 PUSH2 0x611 JUMP JUMPDEST SWAP1 POP SWAP2 SWAP1 POP JUMP JUMPDEST PUSH2 0x64A DUP2 PUSH2 0x630 JUMP JUMPDEST DUP2 EQ PUSH2 0x654 JUMPI PUSH0 DUP1 REVERT JUMPDEST POP JUMP JUMPDEST PUSH0 DUP2 CALLDATALOAD SWAP1 POP PUSH2 0x665 DUP2 PUSH2 0x641 JUMP JUMPDEST SWAP3 SWAP2 POP POP JUMP JUMPDEST PUSH0 PUSH1 0x20 DUP3 DUP5 SUB SLT ISZERO PUSH2 0x680 JUMPI PUSH2 0x67F PUSH2 0x60D JUMP JUMPDEST JUMPDEST PUSH0 PUSH2 0x68D DUP5 DUP3 DUP6 ADD PUSH2 0x657 JUMP JUMPDEST SWAP2 POP POP SWAP3 SWAP2 POP POP JUMP JUMPDEST PUSH2 0x69F DUP2 PUSH2 0x5DC JUMP JUMPDEST DUP2 EQ PUSH2 0x6A9 JUMPI PUSH0 DUP1 REVERT JUMPDEST POP JUMP JUMPDEST PUSH0 DUP2 CALLDATALOAD SWAP1 POP PUSH2 0x6BA DUP2 PUSH2 0x696 JUMP JUMPDEST SWAP3 SWAP2 POP POP JUMP JUMPDEST PUSH0 PUSH1 0x20 DUP3 DUP5 SUB SLT ISZERO PUSH2 0x6D5 JUMPI PUSH2 0x6D4 PUSH2 0x60D JUMP JUMPDEST JUMPDEST PUSH0 PUSH2 0x6E2 DUP5 DUP3 DUP6 ADD PUSH2 0x6AC JUMP JUMPDEST SWAP2 POP POP SWAP3 SWAP2 POP POP JUMP JUMPDEST PUSH2 0x6F4 DUP2 PUSH2 0x630 JUMP JUMPDEST DUP3 MSTORE POP POP JUMP JUMPDEST PUSH0 PUSH1 0x20 DUP3 ADD SWAP1 POP PUSH2 0x70D PUSH0 DUP4 ADD DUP5 PUSH2 0x6EB JUMP JUMPDEST SWAP3 SWAP2 POP POP JUMP JUMPDEST PUSH0 DUP1 PUSH1 0x40 DUP4 DUP6 SUB SLT ISZERO PUSH2 0x729 JUMPI PUSH2 0x728 PUSH2 0x60D JUMP JUMPDEST JUMPDEST PUSH0 PUSH2 0x736 DUP6 DUP3 DUP7 ADD PUSH2 0x657 JUMP JUMPDEST SWAP3 POP POP PUSH1 0x20 PUSH2 0x747 DUP6 DUP3 DUP7 ADD PUSH2 0x6AC JUMP JUMPDEST SWAP2 POP POP SWAP3 POP SWAP3 SWAP1 POP JUMP JUMPDEST PUSH0 DUP3 DUP3 MSTORE PUSH1 0x20 DUP3 ADD SWAP1 POP SWAP3 SWAP2 POP POP JUMP JUMPDEST PUSH32 0x4E6F207469656E65732073756669656374657320666F6E646F73000000000000 PUSH0 DUP3 ADD MSTORE POP JUMP JUMPDEST PUSH0 PUSH2 0x795 PUSH1 0x1A DUP4 PUSH2 0x751 JUMP JUMPDEST SWAP2 POP PUSH2 0x7A0 DUP3 PUSH2 0x761 JUMP JUMPDEST PUSH1 0x20 DUP3 ADD SWAP1 POP SWAP2 SWAP1 POP JUMP JUMPDEST PUSH0 PUSH1 0x20 DUP3 ADD SWAP1 POP DUP2 DUP2 SUB PUSH0 DUP4 ADD MSTORE PUSH2 0x7C2 DUP2 PUSH2 0x789 JUMP JUMPDEST SWAP1 POP SWAP2 SWAP1 POP JUMP JUMPDEST PUSH32 0x4E487B7100000000000000000000000000000000000000000000000000000000 PUSH0 MSTORE PUSH1 0x11 PUSH1 0x4 MSTORE PUSH1 0x24 PUSH0 REVERT JUMPDEST PUSH0 PUSH2 0x800 DUP3 PUSH2 0x5DC JUMP JUMPDEST SWAP2 POP PUSH2 0x80B DUP4 PUSH2 0x5DC JUMP JUMPDEST SWAP3 POP DUP3 DUP3 SUB SWAP1 POP DUP2 DUP2 GT ISZERO PUSH2 0x823 JUMPI PUSH2 0x822 PUSH2 0x7C9 JUMP JUMPDEST JUMPDEST SWAP3 SWAP2 POP POP JUMP JUMPDEST PUSH32 0x6E6F206573746173206175746F72697A61646F00000000000000000000000000 PUSH0 DUP3 ADD MSTORE POP JUMP JUMPDEST PUSH0 PUSH2 0x85D PUSH1 0x13 DUP4 PUSH2 0x751 JUMP JUMPDEST SWAP2 POP PUSH2 0x868 DUP3 PUSH2 0x829 JUMP JUMPDEST PUSH1 0x20 DUP3 ADD SWAP1 POP SWAP2 SWAP1 POP JUMP JUMPDEST PUSH0 PUSH1 0x20 DUP3 ADD SWAP1 POP DUP2 DUP2 SUB PUSH0 DUP4 ADD MSTORE PUSH2 0x88A DUP2 PUSH2 0x851 JUMP JUMPDEST SWAP1 POP SWAP2 SWAP1 POP JUMP JUMPDEST PUSH32 0x446972656363696F6E20696E76616C6964610000000000000000000000000000 PUSH0 DUP3 ADD MSTORE POP JUMP JUMPDEST PUSH0 PUSH2 0x8C5 PUSH1 0x12 DUP4 PUSH2 0x751 JUMP JUMPDEST SWAP2 POP PUSH2 0x8D0 DUP3 PUSH2 0x891 JUMP JUMPDEST PUSH1 0x20 DUP3 ADD SWAP1 POP SWAP2 SWAP1 POP JUMP JUMPDEST PUSH0 PUSH1 0x20 DUP3 ADD SWAP1 POP DUP2 DUP2 SUB PUSH0 DUP4 ADD MSTORE PUSH2 0x8F2 DUP2 PUSH2 0x8B9 JUMP JUMPDEST SWAP1 POP SWAP2 SWAP1 POP JUMP JUMPDEST PUSH32 0x666F6E646F7320696E737566696369656E746573000000000000000000000000 PUSH0 DUP3 ADD MSTORE POP JUMP JUMPDEST PUSH0 PUSH2 0x92D PUSH1 0x14 DUP4 PUSH2 0x751 JUMP JUMPDEST SWAP2 POP PUSH2 0x938 DUP3 PUSH2 0x8F9 JUMP JUMPDEST PUSH1 0x20 DUP3 ADD SWAP1 POP SWAP2 SWAP1 POP JUMP JUMPDEST PUSH0 PUSH1 0x20 DUP3 ADD SWAP1 POP DUP2 DUP2 SUB PUSH0 DUP4 ADD MSTORE PUSH2 0x95A DUP2 PUSH2 0x921 JUMP JUMPDEST SWAP1 POP SWAP2 SWAP1 POP JUMP JUMPDEST PUSH0 PUSH2 0x96B DUP3 PUSH2 0x5DC JUMP JUMPDEST SWAP2 POP PUSH2 0x976 DUP4 PUSH2 0x5DC JUMP JUMPDEST SWAP3 POP DUP3 DUP3 ADD SWAP1 POP DUP1 DUP3 GT ISZERO PUSH2 0x98E JUMPI PUSH2 0x98D PUSH2 0x7C9 JUMP JUMPDEST JUMPDEST SWAP3 SWAP2 POP POP JUMP JUMPDEST PUSH32 0x646562657320656E766961722045544800000000000000000000000000000000 PUSH0 DUP3 ADD MSTORE POP JUMP JUMPDEST PUSH0 PUSH2 0x9C8 PUSH1 0x10 DUP4 PUSH2 0x751 JUMP JUMPDEST SWAP2 POP PUSH2 0x9D3 DUP3 PUSH2 0x994 JUMP JUMPDEST PUSH1 0x20 DUP3 ADD SWAP1 POP SWAP2 SWAP1 POP JUMP JUMPDEST PUSH0 PUSH1 0x20 DUP3 ADD SWAP1 POP DUP2 DUP2 SUB PUSH0 DUP4 ADD MSTORE PUSH2 0x9F5 DUP2 PUSH2 0x9BC JUMP JUMPDEST SWAP1 POP SWAP2 SWAP1 POP JUMP INVALID LOG2 PUSH5 0x6970667358 0x22 SLT KECCAK256 0xEC 0x2F 0x2E DUP14 0x22 CHAINID DUP7 ISZERO DUP5 GAS 0x2F PUSH24 0x787D41539F2488BFF175554EAFD2E374BE28B23F64736F6C PUSH4 0x43000818 STOP CALLER "
				},
				"gasEstimates": {
					"creation": {
						"codeDepositCost": "522000",
						"executionCost": "24819",
						"totalCost": "546819"
					},
					"external": {
						"balances(address)": "2824",
						"deposit()": "infinite",
						"getBalance()": "2520",
						"getContractBalance()": "2598",
						"owner()": "2530",
						"transfer(address,uint256)": "infinite",
						"withdraw(uint256)": "infinite"
					}
				},
				"methodIdentifiers": {
					"balances(address)": "27e235e3",
					"deposit()": "d0e30db0",
					"getBalance()": "12065fe0",
					"getContractBalance()": "6f9fb98a",
					"owner()": "8da5cb5b",
					"transfer(address,uint256)": "a9059cbb",
					"withdraw(uint256)": "2e1a7d4d"
				}
			},
			"storageLayout": {
				"storage": [
					{
						"astId": 5,
						"contract": "Simple_bank.sol:SimpleBank",
						"label": "balances",
						"offset": 0,
						"slot": "0",
						"type": "t_mapping(t_address,t_uint256)"
					},
					{
						"astId": 7,
						"contract": "Simple_bank.sol:SimpleBank",
						"label": "owner",
						"offset": 0,
						"slot": "1",
						"type": "t_address"
					}
				],
				"types": {
					"t_address": {
						"encoding": "inplace",
						"label": "address",
						"numberOfBytes": "20"
					},
					"t_mapping(t_address,t_uint256)": {
						"encoding": "mapping",
						"key": "t_address",
						"label": "mapping(address => uint256)",
						"numberOfBytes": "32",
						"value": "t_uint256"
					},
					"t_uint256": {
						"encoding": "inplace",
						"label": "uint256",
						"numberOfBytes": "32"
					}
				}
			},
			"userdoc": {
				"kind": "user",
				"methods": {},
				"version": 1
			}
		}
	}
}