{
	"UserRegistry.sol": {
		"UserRegistry": {
			"abi": [
				{
					"inputs": [],
					"name": "getAllUsers",
					"outputs": [
						{
							"internalType": "address[]",
							"name": "",
							"type": "address[]"
						}
					],
					"stateMutability": "view",
					"type": "function"
				},
				{
					"inputs": [
						{
							"internalType": "string",
							"name": "_name",
							"type": "string"
						},
						{
							"internalType": "uint256",
							"name": "_initialBalance",
							"type": "uint256"
						}
					],
					"name": "registerUser",
					"outputs": [],
					"stateMutability": "nonpayable",
					"type": "function"
				},
				{
					"inputs": [
						{
							"internalType": "uint256",
							"name": "",
							"type": "uint256"
						}
					],
					"name": "userAddresses",
					"outputs": [
						{
							"internalType": "address",
							"name": "",
							"type": "address"
						}
					],
					"stateMutability": "view",
					"type": "function"
				},
				{
					"inputs": [
						{
							"internalType": "address",
							"name": "",
							"type": "address"
						}
					],
					"name": "users",
					"outputs": [
						{
							"internalType": "string",
							"name": "name",
							"type": "string"
						},
						{
							"internalType": "uint256",
							"name": "balance",
							"type": "uint256"
						}
					],
					"stateMutability": "view",
					"type": "function"
				}
			],
			"devdoc": {
				"kind": "dev",
				"methods": {},
				"version": 1
			},
			"evm": {
				"assembly": "    /* \"UserRegistry.sol\":60:483  contract UserRegistry {... */\n  mstore(0x40, 0x80)\n  callvalue\n  dup1\n  iszero\n  tag_1\n  jumpi\n  0x00\n  dup1\n  revert\ntag_1:\n  pop\n  dataSize(sub_0)\n  dup1\n  dataOffset(sub_0)\n  0x00\n  codecopy\n  0x00\n  return\nstop\n\nsub_0: assembly {\n        /* \"UserRegistry.sol\":60:483  contract UserRegistry {... */\n      mstore(0x40, 0x80)\n      callvalue\n      dup1\n      iszero\n      tag_1\n      jumpi\n      0x00\n      dup1\n      revert\n    tag_1:\n      pop\n      jumpi(tag_2, lt(calldatasize, 0x04))\n      shr(0xe0, calldataload(0x00))\n      dup1\n      0x502c9bd5\n      eq\n      tag_3\n      jumpi\n      dup1\n      0xa87430ba\n      eq\n      tag_4\n      jumpi\n      dup1\n      0xd3951002\n      eq\n      tag_5\n      jumpi\n      dup1\n      0xe2842d79\n      eq\n      tag_6\n      jumpi\n    tag_2:\n      0x00\n      dup1\n      revert\n        /* \"UserRegistry.sol\":206:236  address[] public userAddresses */\n    tag_3:\n      tag_7\n      0x04\n      dup1\n      calldatasize\n      sub\n      dup2\n      add\n      swap1\n      tag_8\n      swap2\n      swap1\n      tag_9\n      jump\t// in\n    tag_8:\n      tag_10\n      jump\t// in\n    tag_7:\n      mload(0x40)\n      tag_11\n      swap2\n      swap1\n      tag_12\n      jump\t// in\n    tag_11:\n      mload(0x40)\n      dup1\n      swap2\n      sub\n      swap1\n      return\n        /* \"UserRegistry.sol\":162:199  mapping(address => User) public users */\n    tag_4:\n      tag_13\n      0x04\n      dup1\n      calldatasize\n      sub\n      dup2\n      add\n      swap1\n      tag_14\n      swap2\n      swap1\n      tag_15\n      jump\t// in\n    tag_14:\n      tag_16\n      jump\t// in\n    tag_13:\n      mload(0x40)\n      tag_17\n      swap3\n      swap2\n      swap1\n      tag_18\n      jump\t// in\n    tag_17:\n      mload(0x40)\n      dup1\n      swap2\n      sub\n      swap1\n      return\n        /* \"UserRegistry.sol\":245:371  function registerUser(string memory _name, uint _initialBalance) public {... */\n    tag_5:\n      tag_19\n      0x04\n      dup1\n      calldatasize\n      sub\n      dup2\n      add\n      swap1\n      tag_20\n      swap2\n      swap1\n      tag_21\n      jump\t// in\n    tag_20:\n      tag_22\n      jump\t// in\n    tag_19:\n      stop\n        /* \"UserRegistry.sol\":379:480  function getAllUsers() public view returns (address[] memory) {... */\n    tag_6:\n      tag_23\n      tag_24\n      jump\t// in\n    tag_23:\n      mload(0x40)\n      tag_25\n      swap2\n      swap1\n      tag_26\n      jump\t// in\n    tag_25:\n      mload(0x40)\n      dup1\n      swap2\n      sub\n      swap1\n      return\n        /* \"UserRegistry.sol\":206:236  address[] public userAddresses */\n    tag_10:\n      0x01\n      dup2\n      dup2\n      sload\n      dup2\n      lt\n      tag_27\n      jumpi\n      0x00\n      dup1\n      revert\n    tag_27:\n      swap1\n      0x00\n      mstore\n      keccak256(0x00, 0x20)\n      add\n      0x00\n      swap2\n      pop\n      sload\n      swap1\n      0x0100\n      exp\n      swap1\n      div\n      0xffffffffffffffffffffffffffffffffffffffff\n      and\n      dup2\n      jump\t// out\n        /* \"UserRegistry.sol\":162:199  mapping(address => User) public users */\n    tag_16:\n      mstore(0x20, 0x00)\n      dup1\n      0x00\n      mstore\n      keccak256(0x00, 0x40)\n      0x00\n      swap2\n      pop\n      swap1\n      pop\n      dup1\n      0x00\n      add\n      dup1\n      sload\n      tag_29\n      swap1\n      tag_30\n      jump\t// in\n    tag_29:\n      dup1\n      0x1f\n      add\n      0x20\n      dup1\n      swap2\n      div\n      mul\n      0x20\n      add\n      mload(0x40)\n      swap1\n      dup2\n      add\n      0x40\n      mstore\n      dup1\n      swap3\n      swap2\n      swap1\n      dup2\n      dup2\n      mstore\n      0x20\n      add\n      dup3\n      dup1\n      sload\n      tag_31\n      swap1\n      tag_30\n      jump\t// in\n    tag_31:\n      dup1\n      iszero\n      tag_32\n      jumpi\n      dup1\n      0x1f\n      lt\n      tag_33\n      jumpi\n      0x0100\n      dup1\n      dup4\n      sload\n      div\n      mul\n      dup4\n      mstore\n      swap2\n      0x20\n      add\n      swap2\n      jump(tag_32)\n    tag_33:\n      dup3\n      add\n      swap2\n      swap1\n      0x00\n      mstore\n      keccak256(0x00, 0x20)\n      swap1\n    tag_34:\n      dup2\n      sload\n      dup2\n      mstore\n      swap1\n      0x01\n      add\n      swap1\n      0x20\n      add\n      dup1\n      dup4\n      gt\n      tag_34\n      jumpi\n      dup3\n      swap1\n      sub\n      0x1f\n      and\n      dup3\n      add\n      swap2\n    tag_32:\n      pop\n      pop\n      pop\n      pop\n      pop\n      swap1\n      dup1\n      0x01\n      add\n      sload\n      swap1\n      pop\n      dup3\n      jump\t// out\n        /* \"UserRegistry.sol\":245:371  function registerUser(string memory _name, uint _initialBalance) public {... */\n    tag_22:\n      pop\n      pop\n      jump\t// out\n        /* \"UserRegistry.sol\":379:480  function getAllUsers() public view returns (address[] memory) {... */\n    tag_24:\n        /* \"UserRegistry.sol\":423:439  address[] memory */\n      0x60\n        /* \"UserRegistry.sol\":459:472  userAddresses */\n      0x01\n        /* \"UserRegistry.sol\":452:472  return userAddresses */\n      dup1\n      sload\n      dup1\n      0x20\n      mul\n      0x20\n      add\n      mload(0x40)\n      swap1\n      dup2\n      add\n      0x40\n      mstore\n      dup1\n      swap3\n      swap2\n      swap1\n      dup2\n      dup2\n      mstore\n      0x20\n      add\n      dup3\n      dup1\n      sload\n      dup1\n      iszero\n      tag_37\n      jumpi\n      0x20\n      mul\n      dup3\n      add\n      swap2\n      swap1\n      0x00\n      mstore\n      keccak256(0x00, 0x20)\n      swap1\n    tag_38:\n      dup2\n      0x00\n      swap1\n      sload\n      swap1\n      0x0100\n      exp\n      swap1\n      div\n      0xffffffffffffffffffffffffffffffffffffffff\n      and\n      0xffffffffffffffffffffffffffffffffffffffff\n      and\n      dup2\n      mstore\n      0x20\n      add\n      swap1\n      0x01\n      add\n      swap1\n      dup1\n      dup4\n      gt\n      tag_38\n      jumpi\n    tag_37:\n      pop\n      pop\n      pop\n      pop\n      pop\n      swap1\n      pop\n        /* \"UserRegistry.sol\":379:480  function getAllUsers() public view returns (address[] memory) {... */\n      swap1\n      jump\t// out\n        /* \"#utility.yul\":7:82   */\n    tag_39:\n        /* \"#utility.yul\":40:46   */\n      0x00\n        /* \"#utility.yul\":73:75   */\n      0x40\n        /* \"#utility.yul\":67:76   */\n      mload\n        /* \"#utility.yul\":57:76   */\n      swap1\n      pop\n        /* \"#utility.yul\":7:82   */\n      swap1\n      jump\t// out\n        /* \"#utility.yul\":88:205   */\n    tag_40:\n        /* \"#utility.yul\":197:198   */\n      0x00\n        /* \"#utility.yul\":194:195   */\n      dup1\n        /* \"#utility.yul\":187:199   */\n      revert\n        /* \"#utility.yul\":211:328   */\n    tag_41:\n        /* \"#utility.yul\":320:321   */\n      0x00\n        /* \"#utility.yul\":317:318   */\n      dup1\n        /* \"#utility.yul\":310:322   */\n      revert\n        /* \"#utility.yul\":334:411   */\n    tag_42:\n        /* \"#utility.yul\":371:378   */\n      0x00\n        /* \"#utility.yul\":400:405   */\n      dup2\n        /* \"#utility.yul\":389:405   */\n      swap1\n      pop\n        /* \"#utility.yul\":334:411   */\n      swap2\n      swap1\n      pop\n      jump\t// out\n        /* \"#utility.yul\":417:539   */\n    tag_43:\n        /* \"#utility.yul\":490:514   */\n      tag_79\n        /* \"#utility.yul\":508:513   */\n      dup2\n        /* \"#utility.yul\":490:514   */\n      tag_42\n      jump\t// in\n    tag_79:\n        /* \"#utility.yul\":483:488   */\n      dup2\n        /* \"#utility.yul\":480:515   */\n      eq\n        /* \"#utility.yul\":470:533   */\n      tag_80\n      jumpi\n        /* \"#utility.yul\":529:530   */\n      0x00\n        /* \"#utility.yul\":526:527   */\n      dup1\n        /* \"#utility.yul\":519:531   */\n      revert\n        /* \"#utility.yul\":470:533   */\n    tag_80:\n        /* \"#utility.yul\":417:539   */\n      pop\n      jump\t// out\n        /* \"#utility.yul\":545:684   */\n    tag_44:\n        /* \"#utility.yul\":591:596   */\n      0x00\n        /* \"#utility.yul\":629:635   */\n      dup2\n        /* \"#utility.yul\":616:636   */\n      calldataload\n        /* \"#utility.yul\":607:636   */\n      swap1\n      pop\n        /* \"#utility.yul\":645:678   */\n      tag_82\n        /* \"#utility.yul\":672:677   */\n      dup2\n        /* \"#utility.yul\":645:678   */\n      tag_43\n      jump\t// in\n    tag_82:\n        /* \"#utility.yul\":545:684   */\n      swap3\n      swap2\n      pop\n      pop\n      jump\t// out\n        /* \"#utility.yul\":690:1019   */\n    tag_9:\n        /* \"#utility.yul\":749:755   */\n      0x00\n        /* \"#utility.yul\":798:800   */\n      0x20\n        /* \"#utility.yul\":786:795   */\n      dup3\n        /* \"#utility.yul\":777:784   */\n      dup5\n        /* \"#utility.yul\":773:796   */\n      sub\n        /* \"#utility.yul\":769:801   */\n      slt\n        /* \"#utility.yul\":766:885   */\n      iszero\n      tag_84\n      jumpi\n        /* \"#utility.yul\":804:883   */\n      tag_85\n      tag_40\n      jump\t// in\n    tag_85:\n        /* \"#utility.yul\":766:885   */\n    tag_84:\n        /* \"#utility.yul\":924:925   */\n      0x00\n        /* \"#utility.yul\":949:1002   */\n      tag_86\n        /* \"#utility.yul\":994:1001   */\n      dup5\n        /* \"#utility.yul\":985:991   */\n      dup3\n        /* \"#utility.yul\":974:983   */\n      dup6\n        /* \"#utility.yul\":970:992   */\n      add\n        /* \"#utility.yul\":949:1002   */\n      tag_44\n      jump\t// in\n    tag_86:\n        /* \"#utility.yul\":939:1002   */\n      swap2\n      pop\n        /* \"#utility.yul\":895:1012   */\n      pop\n        /* \"#utility.yul\":690:1019   */\n      swap3\n      swap2\n      pop\n      pop\n      jump\t// out\n        /* \"#utility.yul\":1025:1151   */\n    tag_45:\n        /* \"#utility.yul\":1062:1069   */\n      0x00\n        /* \"#utility.yul\":1102:1144   */\n      0xffffffffffffffffffffffffffffffffffffffff\n        /* \"#utility.yul\":1095:1100   */\n      dup3\n        /* \"#utility.yul\":1091:1145   */\n      and\n        /* \"#utility.yul\":1080:1145   */\n      swap1\n      pop\n        /* \"#utility.yul\":1025:1151   */\n      swap2\n      swap1\n      pop\n      jump\t// out\n        /* \"#utility.yul\":1157:1253   */\n    tag_46:\n        /* \"#utility.yul\":1194:1201   */\n      0x00\n        /* \"#utility.yul\":1223:1247   */\n      tag_89\n        /* \"#utility.yul\":1241:1246   */\n      dup3\n        /* \"#utility.yul\":1223:1247   */\n      tag_45\n      jump\t// in\n    tag_89:\n        /* \"#utility.yul\":1212:1247   */\n      swap1\n      pop\n        /* \"#utility.yul\":1157:1253   */\n      swap2\n      swap1\n      pop\n      jump\t// out\n        /* \"#utility.yul\":1259:1377   */\n    tag_47:\n        /* \"#utility.yul\":1346:1370   */\n      tag_91\n        /* \"#utility.yul\":1364:1369   */\n      dup2\n        /* \"#utility.yul\":1346:1370   */\n      tag_46\n      jump\t// in\n    tag_91:\n        /* \"#utility.yul\":1341:1344   */\n      dup3\n        /* \"#utility.yul\":1334:1371   */\n      mstore\n        /* \"#utility.yul\":1259:1377   */\n      pop\n      pop\n      jump\t// out\n        /* \"#utility.yul\":1383:1605   */\n    tag_12:\n        /* \"#utility.yul\":1476:1480   */\n      0x00\n        /* \"#utility.yul\":1514:1516   */\n      0x20\n        /* \"#utility.yul\":1503:1512   */\n      dup3\n        /* \"#utility.yul\":1499:1517   */\n      add\n        /* \"#utility.yul\":1491:1517   */\n      swap1\n      pop\n        /* \"#utility.yul\":1527:1598   */\n      tag_93\n        /* \"#utility.yul\":1595:1596   */\n      0x00\n        /* \"#utility.yul\":1584:1593   */\n      dup4\n        /* \"#utility.yul\":1580:1597   */\n      add\n        /* \"#utility.yul\":1571:1577   */\n      dup5\n        /* \"#utility.yul\":1527:1598   */\n      tag_47\n      jump\t// in\n    tag_93:\n        /* \"#utility.yul\":1383:1605   */\n      swap3\n      swap2\n      pop\n      pop\n      jump\t// out\n        /* \"#utility.yul\":1611:1733   */\n    tag_48:\n        /* \"#utility.yul\":1684:1708   */\n      tag_95\n        /* \"#utility.yul\":1702:1707   */\n      dup2\n        /* \"#utility.yul\":1684:1708   */\n      tag_46\n      jump\t// in\n    tag_95:\n        /* \"#utility.yul\":1677:1682   */\n      dup2\n        /* \"#utility.yul\":1674:1709   */\n      eq\n        /* \"#utility.yul\":1664:1727   */\n      tag_96\n      jumpi\n        /* \"#utility.yul\":1723:1724   */\n      0x00\n        /* \"#utility.yul\":1720:1721   */\n      dup1\n        /* \"#utility.yul\":1713:1725   */\n      revert\n        /* \"#utility.yul\":1664:1727   */\n    tag_96:\n        /* \"#utility.yul\":1611:1733   */\n      pop\n      jump\t// out\n        /* \"#utility.yul\":1739:1878   */\n    tag_49:\n        /* \"#utility.yul\":1785:1790   */\n      0x00\n        /* \"#utility.yul\":1823:1829   */\n      dup2\n        /* \"#utility.yul\":1810:1830   */\n      calldataload\n        /* \"#utility.yul\":1801:1830   */\n      swap1\n      pop\n        /* \"#utility.yul\":1839:1872   */\n      tag_98\n        /* \"#utility.yul\":1866:1871   */\n      dup2\n        /* \"#utility.yul\":1839:1872   */\n      tag_48\n      jump\t// in\n    tag_98:\n        /* \"#utility.yul\":1739:1878   */\n      swap3\n      swap2\n      pop\n      pop\n      jump\t// out\n        /* \"#utility.yul\":1884:2213   */\n    tag_15:\n        /* \"#utility.yul\":1943:1949   */\n      0x00\n        /* \"#utility.yul\":1992:1994   */\n      0x20\n        /* \"#utility.yul\":1980:1989   */\n      dup3\n        /* \"#utility.yul\":1971:1978   */\n      dup5\n        /* \"#utility.yul\":1967:1990   */\n      sub\n        /* \"#utility.yul\":1963:1995   */\n      slt\n        /* \"#utility.yul\":1960:2079   */\n      iszero\n      tag_100\n      jumpi\n        /* \"#utility.yul\":1998:2077   */\n      tag_101\n      tag_40\n      jump\t// in\n    tag_101:\n        /* \"#utility.yul\":1960:2079   */\n    tag_100:\n        /* \"#utility.yul\":2118:2119   */\n      0x00\n        /* \"#utility.yul\":2143:2196   */\n      tag_102\n        /* \"#utility.yul\":2188:2195   */\n      dup5\n        /* \"#utility.yul\":2179:2185   */\n      dup3\n        /* \"#utility.yul\":2168:2177   */\n      dup6\n        /* \"#utility.yul\":2164:2186   */\n      add\n        /* \"#utility.yul\":2143:2196   */\n      tag_49\n      jump\t// in\n    tag_102:\n        /* \"#utility.yul\":2133:2196   */\n      swap2\n      pop\n        /* \"#utility.yul\":2089:2206   */\n      pop\n        /* \"#utility.yul\":1884:2213   */\n      swap3\n      swap2\n      pop\n      pop\n      jump\t// out\n        /* \"#utility.yul\":2219:2318   */\n    tag_50:\n        /* \"#utility.yul\":2271:2277   */\n      0x00\n        /* \"#utility.yul\":2305:2310   */\n      dup2\n        /* \"#utility.yul\":2299:2311   */\n      mload\n        /* \"#utility.yul\":2289:2311   */\n      swap1\n      pop\n        /* \"#utility.yul\":2219:2318   */\n      swap2\n      swap1\n      pop\n      jump\t// out\n        /* \"#utility.yul\":2324:2493   */\n    tag_51:\n        /* \"#utility.yul\":2408:2419   */\n      0x00\n        /* \"#utility.yul\":2442:2448   */\n      dup3\n        /* \"#utility.yul\":2437:2440   */\n      dup3\n        /* \"#utility.yul\":2430:2449   */\n      mstore\n        /* \"#utility.yul\":2482:2486   */\n      0x20\n        /* \"#utility.yul\":2477:2480   */\n      dup3\n        /* \"#utility.yul\":2473:2487   */\n      add\n        /* \"#utility.yul\":2458:2487   */\n      swap1\n      pop\n        /* \"#utility.yul\":2324:2493   */\n      swap3\n      swap2\n      pop\n      pop\n      jump\t// out\n        /* \"#utility.yul\":2499:2745   */\n    tag_52:\n        /* \"#utility.yul\":2580:2581   */\n      0x00\n        /* \"#utility.yul\":2590:2703   */\n    tag_106:\n        /* \"#utility.yul\":2604:2610   */\n      dup4\n        /* \"#utility.yul\":2601:2602   */\n      dup2\n        /* \"#utility.yul\":2598:2611   */\n      lt\n        /* \"#utility.yul\":2590:2703   */\n      iszero\n      tag_108\n      jumpi\n        /* \"#utility.yul\":2689:2690   */\n      dup1\n        /* \"#utility.yul\":2684:2687   */\n      dup3\n        /* \"#utility.yul\":2680:2691   */\n      add\n        /* \"#utility.yul\":2674:2692   */\n      mload\n        /* \"#utility.yul\":2670:2671   */\n      dup2\n        /* \"#utility.yul\":2665:2668   */\n      dup5\n        /* \"#utility.yul\":2661:2672   */\n      add\n        /* \"#utility.yul\":2654:2693   */\n      mstore\n        /* \"#utility.yul\":2626:2628   */\n      0x20\n        /* \"#utility.yul\":2623:2624   */\n      dup2\n        /* \"#utility.yul\":2619:2629   */\n      add\n        /* \"#utility.yul\":2614:2629   */\n      swap1\n      pop\n        /* \"#utility.yul\":2590:2703   */\n      jump(tag_106)\n    tag_108:\n        /* \"#utility.yul\":2737:2738   */\n      0x00\n        /* \"#utility.yul\":2728:2734   */\n      dup5\n        /* \"#utility.yul\":2723:2726   */\n      dup5\n        /* \"#utility.yul\":2719:2735   */\n      add\n        /* \"#utility.yul\":2712:2739   */\n      mstore\n        /* \"#utility.yul\":2561:2745   */\n      pop\n        /* \"#utility.yul\":2499:2745   */\n      pop\n      pop\n      pop\n      jump\t// out\n        /* \"#utility.yul\":2751:2853   */\n    tag_53:\n        /* \"#utility.yul\":2792:2798   */\n      0x00\n        /* \"#utility.yul\":2843:2845   */\n      0x1f\n        /* \"#utility.yul\":2839:2846   */\n      not\n        /* \"#utility.yul\":2834:2836   */\n      0x1f\n        /* \"#utility.yul\":2827:2832   */\n      dup4\n        /* \"#utility.yul\":2823:2837   */\n      add\n        /* \"#utility.yul\":2819:2847   */\n      and\n        /* \"#utility.yul\":2809:2847   */\n      swap1\n      pop\n        /* \"#utility.yul\":2751:2853   */\n      swap2\n      swap1\n      pop\n      jump\t// out\n        /* \"#utility.yul\":2859:3236   */\n    tag_54:\n        /* \"#utility.yul\":2947:2950   */\n      0x00\n        /* \"#utility.yul\":2975:3014   */\n      tag_111\n        /* \"#utility.yul\":3008:3013   */\n      dup3\n        /* \"#utility.yul\":2975:3014   */\n      tag_50\n      jump\t// in\n    tag_111:\n        /* \"#utility.yul\":3030:3101   */\n      tag_112\n        /* \"#utility.yul\":3094:3100   */\n      dup2\n        /* \"#utility.yul\":3089:3092   */\n      dup6\n        /* \"#utility.yul\":3030:3101   */\n      tag_51\n      jump\t// in\n    tag_112:\n        /* \"#utility.yul\":3023:3101   */\n      swap4\n      pop\n        /* \"#utility.yul\":3110:3175   */\n      tag_113\n        /* \"#utility.yul\":3168:3174   */\n      dup2\n        /* \"#utility.yul\":3163:3166   */\n      dup6\n        /* \"#utility.yul\":3156:3160   */\n      0x20\n        /* \"#utility.yul\":3149:3154   */\n      dup7\n        /* \"#utility.yul\":3145:3161   */\n      add\n        /* \"#utility.yul\":3110:3175   */\n      tag_52\n      jump\t// in\n    tag_113:\n        /* \"#utility.yul\":3200:3229   */\n      tag_114\n        /* \"#utility.yul\":3222:3228   */\n      dup2\n        /* \"#utility.yul\":3200:3229   */\n      tag_53\n      jump\t// in\n    tag_114:\n        /* \"#utility.yul\":3195:3198   */\n      dup5\n        /* \"#utility.yul\":3191:3230   */\n      add\n        /* \"#utility.yul\":3184:3230   */\n      swap2\n      pop\n        /* \"#utility.yul\":2951:3236   */\n      pop\n        /* \"#utility.yul\":2859:3236   */\n      swap3\n      swap2\n      pop\n      pop\n      jump\t// out\n        /* \"#utility.yul\":3242:3360   */\n    tag_55:\n        /* \"#utility.yul\":3329:3353   */\n      tag_116\n        /* \"#utility.yul\":3347:3352   */\n      dup2\n        /* \"#utility.yul\":3329:3353   */\n      tag_42\n      jump\t// in\n    tag_116:\n        /* \"#utility.yul\":3324:3327   */\n      dup3\n        /* \"#utility.yul\":3317:3354   */\n      mstore\n        /* \"#utility.yul\":3242:3360   */\n      pop\n      pop\n      jump\t// out\n        /* \"#utility.yul\":3366:3789   */\n    tag_18:\n        /* \"#utility.yul\":3507:3511   */\n      0x00\n        /* \"#utility.yul\":3545:3547   */\n      0x40\n        /* \"#utility.yul\":3534:3543   */\n      dup3\n        /* \"#utility.yul\":3530:3548   */\n      add\n        /* \"#utility.yul\":3522:3548   */\n      swap1\n      pop\n        /* \"#utility.yul\":3594:3603   */\n      dup2\n        /* \"#utility.yul\":3588:3592   */\n      dup2\n        /* \"#utility.yul\":3584:3604   */\n      sub\n        /* \"#utility.yul\":3580:3581   */\n      0x00\n        /* \"#utility.yul\":3569:3578   */\n      dup4\n        /* \"#utility.yul\":3565:3582   */\n      add\n        /* \"#utility.yul\":3558:3605   */\n      mstore\n        /* \"#utility.yul\":3622:3700   */\n      tag_118\n        /* \"#utility.yul\":3695:3699   */\n      dup2\n        /* \"#utility.yul\":3686:3692   */\n      dup6\n        /* \"#utility.yul\":3622:3700   */\n      tag_54\n      jump\t// in\n    tag_118:\n        /* \"#utility.yul\":3614:3700   */\n      swap1\n      pop\n        /* \"#utility.yul\":3710:3782   */\n      tag_119\n        /* \"#utility.yul\":3778:3780   */\n      0x20\n        /* \"#utility.yul\":3767:3776   */\n      dup4\n        /* \"#utility.yul\":3763:3781   */\n      add\n        /* \"#utility.yul\":3754:3760   */\n      dup5\n        /* \"#utility.yul\":3710:3782   */\n      tag_55\n      jump\t// in\n    tag_119:\n        /* \"#utility.yul\":3366:3789   */\n      swap4\n      swap3\n      pop\n      pop\n      pop\n      jump\t// out\n        /* \"#utility.yul\":3795:3912   */\n    tag_56:\n        /* \"#utility.yul\":3904:3905   */\n      0x00\n        /* \"#utility.yul\":3901:3902   */\n      dup1\n        /* \"#utility.yul\":3894:3906   */\n      revert\n        /* \"#utility.yul\":3918:4035   */\n    tag_57:\n        /* \"#utility.yul\":4027:4028   */\n      0x00\n        /* \"#utility.yul\":4024:4025   */\n      dup1\n        /* \"#utility.yul\":4017:4029   */\n      revert\n        /* \"#utility.yul\":4041:4221   */\n    tag_58:\n        /* \"#utility.yul\":4089:4166   */\n      0x4e487b7100000000000000000000000000000000000000000000000000000000\n        /* \"#utility.yul\":4086:4087   */\n      0x00\n        /* \"#utility.yul\":4079:4167   */\n      mstore\n        /* \"#utility.yul\":4186:4190   */\n      0x41\n        /* \"#utility.yul\":4183:4184   */\n      0x04\n        /* \"#utility.yul\":4176:4191   */\n      mstore\n        /* \"#utility.yul\":4210:4214   */\n      0x24\n        /* \"#utility.yul\":4207:4208   */\n      0x00\n        /* \"#utility.yul\":4200:4215   */\n      revert\n        /* \"#utility.yul\":4227:4508   */\n    tag_59:\n        /* \"#utility.yul\":4310:4337   */\n      tag_124\n        /* \"#utility.yul\":4332:4336   */\n      dup3\n        /* \"#utility.yul\":4310:4337   */\n      tag_53\n      jump\t// in\n    tag_124:\n        /* \"#utility.yul\":4302:4308   */\n      dup2\n        /* \"#utility.yul\":4298:4338   */\n      add\n        /* \"#utility.yul\":4440:4446   */\n      dup2\n        /* \"#utility.yul\":4428:4438   */\n      dup2\n        /* \"#utility.yul\":4425:4447   */\n      lt\n        /* \"#utility.yul\":4404:4422   */\n      0xffffffffffffffff\n        /* \"#utility.yul\":4392:4402   */\n      dup3\n        /* \"#utility.yul\":4389:4423   */\n      gt\n        /* \"#utility.yul\":4386:4448   */\n      or\n        /* \"#utility.yul\":4383:4471   */\n      iszero\n      tag_125\n      jumpi\n        /* \"#utility.yul\":4451:4469   */\n      tag_126\n      tag_58\n      jump\t// in\n    tag_126:\n        /* \"#utility.yul\":4383:4471   */\n    tag_125:\n        /* \"#utility.yul\":4491:4501   */\n      dup1\n        /* \"#utility.yul\":4487:4489   */\n      0x40\n        /* \"#utility.yul\":4480:4502   */\n      mstore\n        /* \"#utility.yul\":4270:4508   */\n      pop\n        /* \"#utility.yul\":4227:4508   */\n      pop\n      pop\n      jump\t// out\n        /* \"#utility.yul\":4514:4643   */\n    tag_60:\n        /* \"#utility.yul\":4548:4554   */\n      0x00\n        /* \"#utility.yul\":4575:4595   */\n      tag_128\n      tag_39\n      jump\t// in\n    tag_128:\n        /* \"#utility.yul\":4565:4595   */\n      swap1\n      pop\n        /* \"#utility.yul\":4604:4637   */\n      tag_129\n        /* \"#utility.yul\":4632:4636   */\n      dup3\n        /* \"#utility.yul\":4624:4630   */\n      dup3\n        /* \"#utility.yul\":4604:4637   */\n      tag_59\n      jump\t// in\n    tag_129:\n        /* \"#utility.yul\":4514:4643   */\n      swap2\n      swap1\n      pop\n      jump\t// out\n        /* \"#utility.yul\":4649:4957   */\n    tag_61:\n        /* \"#utility.yul\":4711:4715   */\n      0x00\n        /* \"#utility.yul\":4801:4819   */\n      0xffffffffffffffff\n        /* \"#utility.yul\":4793:4799   */\n      dup3\n        /* \"#utility.yul\":4790:4820   */\n      gt\n        /* \"#utility.yul\":4787:4843   */\n      iszero\n      tag_131\n      jumpi\n        /* \"#utility.yul\":4823:4841   */\n      tag_132\n      tag_58\n      jump\t// in\n    tag_132:\n        /* \"#utility.yul\":4787:4843   */\n    tag_131:\n        /* \"#utility.yul\":4861:4890   */\n      tag_133\n        /* \"#utility.yul\":4883:4889   */\n      dup3\n        /* \"#utility.yul\":4861:4890   */\n      tag_53\n      jump\t// in\n    tag_133:\n        /* \"#utility.yul\":4853:4890   */\n      swap1\n      pop\n        /* \"#utility.yul\":4945:4949   */\n      0x20\n        /* \"#utility.yul\":4939:4943   */\n      dup2\n        /* \"#utility.yul\":4935:4950   */\n      add\n        /* \"#utility.yul\":4927:4950   */\n      swap1\n      pop\n        /* \"#utility.yul\":4649:4957   */\n      swap2\n      swap1\n      pop\n      jump\t// out\n        /* \"#utility.yul\":4963:5109   */\n    tag_62:\n        /* \"#utility.yul\":5060:5066   */\n      dup3\n        /* \"#utility.yul\":5055:5058   */\n      dup2\n        /* \"#utility.yul\":5050:5053   */\n      dup4\n        /* \"#utility.yul\":5037:5067   */\n      calldatacopy\n        /* \"#utility.yul\":5101:5102   */\n      0x00\n        /* \"#utility.yul\":5092:5098   */\n      dup4\n        /* \"#utility.yul\":5087:5090   */\n      dup4\n        /* \"#utility.yul\":5083:5099   */\n      add\n        /* \"#utility.yul\":5076:5103   */\n      mstore\n        /* \"#utility.yul\":4963:5109   */\n      pop\n      pop\n      pop\n      jump\t// out\n        /* \"#utility.yul\":5115:5540   */\n    tag_63:\n        /* \"#utility.yul\":5193:5198   */\n      0x00\n        /* \"#utility.yul\":5218:5284   */\n      tag_136\n        /* \"#utility.yul\":5234:5283   */\n      tag_137\n        /* \"#utility.yul\":5276:5282   */\n      dup5\n        /* \"#utility.yul\":5234:5283   */\n      tag_61\n      jump\t// in\n    tag_137:\n        /* \"#utility.yul\":5218:5284   */\n      tag_60\n      jump\t// in\n    tag_136:\n        /* \"#utility.yul\":5209:5284   */\n      swap1\n      pop\n        /* \"#utility.yul\":5307:5313   */\n      dup3\n        /* \"#utility.yul\":5300:5305   */\n      dup2\n        /* \"#utility.yul\":5293:5314   */\n      mstore\n        /* \"#utility.yul\":5345:5349   */\n      0x20\n        /* \"#utility.yul\":5338:5343   */\n      dup2\n        /* \"#utility.yul\":5334:5350   */\n      add\n        /* \"#utility.yul\":5383:5386   */\n      dup5\n        /* \"#utility.yul\":5374:5380   */\n      dup5\n        /* \"#utility.yul\":5369:5372   */\n      dup5\n        /* \"#utility.yul\":5365:5381   */\n      add\n        /* \"#utility.yul\":5362:5387   */\n      gt\n        /* \"#utility.yul\":5359:5471   */\n      iszero\n      tag_138\n      jumpi\n        /* \"#utility.yul\":5390:5469   */\n      tag_139\n      tag_57\n      jump\t// in\n    tag_139:\n        /* \"#utility.yul\":5359:5471   */\n    tag_138:\n        /* \"#utility.yul\":5480:5534   */\n      tag_140\n        /* \"#utility.yul\":5527:5533   */\n      dup5\n        /* \"#utility.yul\":5522:5525   */\n      dup3\n        /* \"#utility.yul\":5517:5520   */\n      dup6\n        /* \"#utility.yul\":5480:5534   */\n      tag_62\n      jump\t// in\n    tag_140:\n        /* \"#utility.yul\":5199:5540   */\n      pop\n        /* \"#utility.yul\":5115:5540   */\n      swap4\n      swap3\n      pop\n      pop\n      pop\n      jump\t// out\n        /* \"#utility.yul\":5560:5900   */\n    tag_64:\n        /* \"#utility.yul\":5616:5621   */\n      0x00\n        /* \"#utility.yul\":5665:5668   */\n      dup3\n        /* \"#utility.yul\":5658:5662   */\n      0x1f\n        /* \"#utility.yul\":5650:5656   */\n      dup4\n        /* \"#utility.yul\":5646:5663   */\n      add\n        /* \"#utility.yul\":5642:5669   */\n      slt\n        /* \"#utility.yul\":5632:5754   */\n      tag_142\n      jumpi\n        /* \"#utility.yul\":5673:5752   */\n      tag_143\n      tag_56\n      jump\t// in\n    tag_143:\n        /* \"#utility.yul\":5632:5754   */\n    tag_142:\n        /* \"#utility.yul\":5790:5796   */\n      dup2\n        /* \"#utility.yul\":5777:5797   */\n      calldataload\n        /* \"#utility.yul\":5815:5894   */\n      tag_144\n        /* \"#utility.yul\":5890:5893   */\n      dup5\n        /* \"#utility.yul\":5882:5888   */\n      dup3\n        /* \"#utility.yul\":5875:5879   */\n      0x20\n        /* \"#utility.yul\":5867:5873   */\n      dup7\n        /* \"#utility.yul\":5863:5880   */\n      add\n        /* \"#utility.yul\":5815:5894   */\n      tag_63\n      jump\t// in\n    tag_144:\n        /* \"#utility.yul\":5806:5894   */\n      swap2\n      pop\n        /* \"#utility.yul\":5622:5900   */\n      pop\n        /* \"#utility.yul\":5560:5900   */\n      swap3\n      swap2\n      pop\n      pop\n      jump\t// out\n        /* \"#utility.yul\":5906:6560   */\n    tag_21:\n        /* \"#utility.yul\":5984:5990   */\n      0x00\n        /* \"#utility.yul\":5992:5998   */\n      dup1\n        /* \"#utility.yul\":6041:6043   */\n      0x40\n        /* \"#utility.yul\":6029:6038   */\n      dup4\n        /* \"#utility.yul\":6020:6027   */\n      dup6\n        /* \"#utility.yul\":6016:6039   */\n      sub\n        /* \"#utility.yul\":6012:6044   */\n      slt\n        /* \"#utility.yul\":6009:6128   */\n      iszero\n      tag_146\n      jumpi\n        /* \"#utility.yul\":6047:6126   */\n      tag_147\n      tag_40\n      jump\t// in\n    tag_147:\n        /* \"#utility.yul\":6009:6128   */\n    tag_146:\n        /* \"#utility.yul\":6195:6196   */\n      0x00\n        /* \"#utility.yul\":6184:6193   */\n      dup4\n        /* \"#utility.yul\":6180:6197   */\n      add\n        /* \"#utility.yul\":6167:6198   */\n      calldataload\n        /* \"#utility.yul\":6225:6243   */\n      0xffffffffffffffff\n        /* \"#utility.yul\":6217:6223   */\n      dup2\n        /* \"#utility.yul\":6214:6244   */\n      gt\n        /* \"#utility.yul\":6211:6328   */\n      iszero\n      tag_148\n      jumpi\n        /* \"#utility.yul\":6247:6326   */\n      tag_149\n      tag_41\n      jump\t// in\n    tag_149:\n        /* \"#utility.yul\":6211:6328   */\n    tag_148:\n        /* \"#utility.yul\":6352:6415   */\n      tag_150\n        /* \"#utility.yul\":6407:6414   */\n      dup6\n        /* \"#utility.yul\":6398:6404   */\n      dup3\n        /* \"#utility.yul\":6387:6396   */\n      dup7\n        /* \"#utility.yul\":6383:6405   */\n      add\n        /* \"#utility.yul\":6352:6415   */\n      tag_64\n      jump\t// in\n    tag_150:\n        /* \"#utility.yul\":6342:6415   */\n      swap3\n      pop\n        /* \"#utility.yul\":6138:6425   */\n      pop\n        /* \"#utility.yul\":6464:6466   */\n      0x20\n        /* \"#utility.yul\":6490:6543   */\n      tag_151\n        /* \"#utility.yul\":6535:6542   */\n      dup6\n        /* \"#utility.yul\":6526:6532   */\n      dup3\n        /* \"#utility.yul\":6515:6524   */\n      dup7\n        /* \"#utility.yul\":6511:6533   */\n      add\n        /* \"#utility.yul\":6490:6543   */\n      tag_44\n      jump\t// in\n    tag_151:\n        /* \"#utility.yul\":6480:6543   */\n      swap2\n      pop\n        /* \"#utility.yul\":6435:6553   */\n      pop\n        /* \"#utility.yul\":5906:6560   */\n      swap3\n      pop\n      swap3\n      swap1\n      pop\n      jump\t// out\n        /* \"#utility.yul\":6566:6680   */\n    tag_65:\n        /* \"#utility.yul\":6633:6639   */\n      0x00\n        /* \"#utility.yul\":6667:6672   */\n      dup2\n        /* \"#utility.yul\":6661:6673   */\n      mload\n        /* \"#utility.yul\":6651:6673   */\n      swap1\n      pop\n        /* \"#utility.yul\":6566:6680   */\n      swap2\n      swap1\n      pop\n      jump\t// out\n        /* \"#utility.yul\":6686:6870   */\n    tag_66:\n        /* \"#utility.yul\":6785:6796   */\n      0x00\n        /* \"#utility.yul\":6819:6825   */\n      dup3\n        /* \"#utility.yul\":6814:6817   */\n      dup3\n        /* \"#utility.yul\":6807:6826   */\n      mstore\n        /* \"#utility.yul\":6859:6863   */\n      0x20\n        /* \"#utility.yul\":6854:6857   */\n      dup3\n        /* \"#utility.yul\":6850:6864   */\n      add\n        /* \"#utility.yul\":6835:6864   */\n      swap1\n      pop\n        /* \"#utility.yul\":6686:6870   */\n      swap3\n      swap2\n      pop\n      pop\n      jump\t// out\n        /* \"#utility.yul\":6876:7008   */\n    tag_67:\n        /* \"#utility.yul\":6943:6947   */\n      0x00\n        /* \"#utility.yul\":6966:6969   */\n      dup2\n        /* \"#utility.yul\":6958:6969   */\n      swap1\n      pop\n        /* \"#utility.yul\":6996:7000   */\n      0x20\n        /* \"#utility.yul\":6991:6994   */\n      dup3\n        /* \"#utility.yul\":6987:7001   */\n      add\n        /* \"#utility.yul\":6979:7001   */\n      swap1\n      pop\n        /* \"#utility.yul\":6876:7008   */\n      swap2\n      swap1\n      pop\n      jump\t// out\n        /* \"#utility.yul\":7014:7122   */\n    tag_68:\n        /* \"#utility.yul\":7091:7115   */\n      tag_156\n        /* \"#utility.yul\":7109:7114   */\n      dup2\n        /* \"#utility.yul\":7091:7115   */\n      tag_46\n      jump\t// in\n    tag_156:\n        /* \"#utility.yul\":7086:7089   */\n      dup3\n        /* \"#utility.yul\":7079:7116   */\n      mstore\n        /* \"#utility.yul\":7014:7122   */\n      pop\n      pop\n      jump\t// out\n        /* \"#utility.yul\":7128:7307   */\n    tag_69:\n        /* \"#utility.yul\":7197:7207   */\n      0x00\n        /* \"#utility.yul\":7218:7264   */\n      tag_158\n        /* \"#utility.yul\":7260:7263   */\n      dup4\n        /* \"#utility.yul\":7252:7258   */\n      dup4\n        /* \"#utility.yul\":7218:7264   */\n      tag_68\n      jump\t// in\n    tag_158:\n        /* \"#utility.yul\":7296:7300   */\n      0x20\n        /* \"#utility.yul\":7291:7294   */\n      dup4\n        /* \"#utility.yul\":7287:7301   */\n      add\n        /* \"#utility.yul\":7273:7301   */\n      swap1\n      pop\n        /* \"#utility.yul\":7128:7307   */\n      swap3\n      swap2\n      pop\n      pop\n      jump\t// out\n        /* \"#utility.yul\":7313:7426   */\n    tag_70:\n        /* \"#utility.yul\":7383:7387   */\n      0x00\n        /* \"#utility.yul\":7415:7419   */\n      0x20\n        /* \"#utility.yul\":7410:7413   */\n      dup3\n        /* \"#utility.yul\":7406:7420   */\n      add\n        /* \"#utility.yul\":7398:7420   */\n      swap1\n      pop\n        /* \"#utility.yul\":7313:7426   */\n      swap2\n      swap1\n      pop\n      jump\t// out\n        /* \"#utility.yul\":7462:8194   */\n    tag_71:\n        /* \"#utility.yul\":7581:7584   */\n      0x00\n        /* \"#utility.yul\":7610:7664   */\n      tag_161\n        /* \"#utility.yul\":7658:7663   */\n      dup3\n        /* \"#utility.yul\":7610:7664   */\n      tag_65\n      jump\t// in\n    tag_161:\n        /* \"#utility.yul\":7680:7766   */\n      tag_162\n        /* \"#utility.yul\":7759:7765   */\n      dup2\n        /* \"#utility.yul\":7754:7757   */\n      dup6\n        /* \"#utility.yul\":7680:7766   */\n      tag_66\n      jump\t// in\n    tag_162:\n        /* \"#utility.yul\":7673:7766   */\n      swap4\n      pop\n        /* \"#utility.yul\":7790:7846   */\n      tag_163\n        /* \"#utility.yul\":7840:7845   */\n      dup4\n        /* \"#utility.yul\":7790:7846   */\n      tag_67\n      jump\t// in\n    tag_163:\n        /* \"#utility.yul\":7869:7876   */\n      dup1\n        /* \"#utility.yul\":7900:7901   */\n      0x00\n        /* \"#utility.yul\":7885:8169   */\n    tag_164:\n        /* \"#utility.yul\":7910:7916   */\n      dup4\n        /* \"#utility.yul\":7907:7908   */\n      dup2\n        /* \"#utility.yul\":7904:7917   */\n      lt\n        /* \"#utility.yul\":7885:8169   */\n      iszero\n      tag_166\n      jumpi\n        /* \"#utility.yul\":7986:7992   */\n      dup2\n        /* \"#utility.yul\":7980:7993   */\n      mload\n        /* \"#utility.yul\":8013:8076   */\n      tag_167\n        /* \"#utility.yul\":8072:8075   */\n      dup9\n        /* \"#utility.yul\":8057:8070   */\n      dup3\n        /* \"#utility.yul\":8013:8076   */\n      tag_69\n      jump\t// in\n    tag_167:\n        /* \"#utility.yul\":8006:8076   */\n      swap8\n      pop\n        /* \"#utility.yul\":8099:8159   */\n      tag_168\n        /* \"#utility.yul\":8152:8158   */\n      dup4\n        /* \"#utility.yul\":8099:8159   */\n      tag_70\n      jump\t// in\n    tag_168:\n        /* \"#utility.yul\":8089:8159   */\n      swap3\n      pop\n        /* \"#utility.yul\":7945:8169   */\n      pop\n        /* \"#utility.yul\":7932:7933   */\n      0x01\n        /* \"#utility.yul\":7929:7930   */\n      dup2\n        /* \"#utility.yul\":7925:7934   */\n      add\n        /* \"#utility.yul\":7920:7934   */\n      swap1\n      pop\n        /* \"#utility.yul\":7885:8169   */\n      jump(tag_164)\n    tag_166:\n        /* \"#utility.yul\":7889:7903   */\n      pop\n        /* \"#utility.yul\":8185:8188   */\n      dup6\n        /* \"#utility.yul\":8178:8188   */\n      swap4\n      pop\n        /* \"#utility.yul\":7586:8194   */\n      pop\n      pop\n      pop\n        /* \"#utility.yul\":7462:8194   */\n      swap3\n      swap2\n      pop\n      pop\n      jump\t// out\n        /* \"#utility.yul\":8200:8573   */\n    tag_26:\n        /* \"#utility.yul\":8343:8347   */\n      0x00\n        /* \"#utility.yul\":8381:8383   */\n      0x20\n        /* \"#utility.yul\":8370:8379   */\n      dup3\n        /* \"#utility.yul\":8366:8384   */\n      add\n        /* \"#utility.yul\":8358:8384   */\n      swap1\n      pop\n        /* \"#utility.yul\":8430:8439   */\n      dup2\n        /* \"#utility.yul\":8424:8428   */\n      dup2\n        /* \"#utility.yul\":8420:8440   */\n      sub\n        /* \"#utility.yul\":8416:8417   */\n      0x00\n        /* \"#utility.yul\":8405:8414   */\n      dup4\n        /* \"#utility.yul\":8401:8418   */\n      add\n        /* \"#utility.yul\":8394:8441   */\n      mstore\n        /* \"#utility.yul\":8458:8566   */\n      tag_170\n        /* \"#utility.yul\":8561:8565   */\n      dup2\n        /* \"#utility.yul\":8552:8558   */\n      dup5\n        /* \"#utility.yul\":8458:8566   */\n      tag_71\n      jump\t// in\n    tag_170:\n        /* \"#utility.yul\":8450:8566   */\n      swap1\n      pop\n        /* \"#utility.yul\":8200:8573   */\n      swap3\n      swap2\n      pop\n      pop\n      jump\t// out\n        /* \"#utility.yul\":8579:8759   */\n    tag_72:\n        /* \"#utility.yul\":8627:8704   */\n      0x4e487b7100000000000000000000000000000000000000000000000000000000\n        /* \"#utility.yul\":8624:8625   */\n      0x00\n        /* \"#utility.yul\":8617:8705   */\n      mstore\n        /* \"#utility.yul\":8724:8728   */\n      0x22\n        /* \"#utility.yul\":8721:8722   */\n      0x04\n        /* \"#utility.yul\":8714:8729   */\n      mstore\n        /* \"#utility.yul\":8748:8752   */\n      0x24\n        /* \"#utility.yul\":8745:8746   */\n      0x00\n        /* \"#utility.yul\":8738:8753   */\n      revert\n        /* \"#utility.yul\":8765:9085   */\n    tag_30:\n        /* \"#utility.yul\":8809:8815   */\n      0x00\n        /* \"#utility.yul\":8846:8847   */\n      0x02\n        /* \"#utility.yul\":8840:8844   */\n      dup3\n        /* \"#utility.yul\":8836:8848   */\n      div\n        /* \"#utility.yul\":8826:8848   */\n      swap1\n      pop\n        /* \"#utility.yul\":8893:8894   */\n      0x01\n        /* \"#utility.yul\":8887:8891   */\n      dup3\n        /* \"#utility.yul\":8883:8895   */\n      and\n        /* \"#utility.yul\":8914:8932   */\n      dup1\n        /* \"#utility.yul\":8904:8985   */\n      tag_173\n      jumpi\n        /* \"#utility.yul\":8970:8974   */\n      0x7f\n        /* \"#utility.yul\":8962:8968   */\n      dup3\n        /* \"#utility.yul\":8958:8975   */\n      and\n        /* \"#utility.yul\":8948:8975   */\n      swap2\n      pop\n        /* \"#utility.yul\":8904:8985   */\n    tag_173:\n        /* \"#utility.yul\":9032:9034   */\n      0x20\n        /* \"#utility.yul\":9024:9030   */\n      dup3\n        /* \"#utility.yul\":9021:9035   */\n      lt\n        /* \"#utility.yul\":9001:9019   */\n      dup2\n        /* \"#utility.yul\":8998:9036   */\n      sub\n        /* \"#utility.yul\":8995:9079   */\n      tag_174\n      jumpi\n        /* \"#utility.yul\":9051:9069   */\n      tag_175\n      tag_72\n      jump\t// in\n    tag_175:\n        /* \"#utility.yul\":8995:9079   */\n    tag_174:\n        /* \"#utility.yul\":8816:9085   */\n      pop\n        /* \"#utility.yul\":8765:9085   */\n      swap2\n      swap1\n      pop\n      jump\t// out\n\n    auxdata: 0xa26469706673582212205b141af64848079ea45614a9cb44371c748a1c8c567c625d2bf9235a7c4fc45e64736f6c63430008180033\n}\n",
				"bytecode": {
					"linkReferences": {},
					"object": "608060405234801561000f575f80fd5b5061072b8061001d5f395ff3fe608060405234801561000f575f80fd5b506004361061004a575f3560e01c8063502c9bd51461004e578063a87430ba1461007e578063d3951002146100af578063e2842d79146100cb575b5f80fd5b6100686004803603810190610063919061029c565b6100e9565b6040516100759190610306565b60405180910390f35b61009860048036038101906100939190610349565b610124565b6040516100a692919061040d565b60405180910390f35b6100c960048036038101906100c49190610567565b6101c9565b005b6100d36101cd565b6040516100e09190610678565b60405180910390f35b600181815481106100f8575f80fd5b905f5260205f20015f915054906101000a900473ffffffffffffffffffffffffffffffffffffffff1681565b5f602052805f5260405f205f91509050805f018054610142906106c5565b80601f016020809104026020016040519081016040528092919081815260200182805461016e906106c5565b80156101b95780601f10610190576101008083540402835291602001916101b9565b820191905f5260205f20905b81548152906001019060200180831161019c57829003601f168201915b5050505050908060010154905082565b5050565b6060600180548060200260200160405190810160405280929190818152602001828054801561024e57602002820191905f5260205f20905b815f9054906101000a900473ffffffffffffffffffffffffffffffffffffffff1673ffffffffffffffffffffffffffffffffffffffff1681526020019060010190808311610205575b5050505050905090565b5f604051905090565b5f80fd5b5f80fd5b5f819050919050565b61027b81610269565b8114610285575f80fd5b50565b5f8135905061029681610272565b92915050565b5f602082840312156102b1576102b0610261565b5b5f6102be84828501610288565b91505092915050565b5f73ffffffffffffffffffffffffffffffffffffffff82169050919050565b5f6102f0826102c7565b9050919050565b610300816102e6565b82525050565b5f6020820190506103195f8301846102f7565b92915050565b610328816102e6565b8114610332575f80fd5b50565b5f813590506103438161031f565b92915050565b5f6020828403121561035e5761035d610261565b5b5f61036b84828501610335565b91505092915050565b5f81519050919050565b5f82825260208201905092915050565b5f5b838110156103ab578082015181840152602081019050610390565b5f8484015250505050565b5f601f19601f8301169050919050565b5f6103d082610374565b6103da818561037e565b93506103ea81856020860161038e565b6103f3816103b6565b840191505092915050565b61040781610269565b82525050565b5f6040820190508181035f83015261042581856103c6565b905061043460208301846103fe565b9392505050565b5f80fd5b5f80fd5b7f4e487b71000000000000000000000000000000000000000000000000000000005f52604160045260245ffd5b610479826103b6565b810181811067ffffffffffffffff8211171561049857610497610443565b5b80604052505050565b5f6104aa610258565b90506104b68282610470565b919050565b5f67ffffffffffffffff8211156104d5576104d4610443565b5b6104de826103b6565b9050602081019050919050565b828183375f83830152505050565b5f61050b610506846104bb565b6104a1565b9050828152602081018484840111156105275761052661043f565b5b6105328482856104eb565b509392505050565b5f82601f83011261054e5761054d61043b565b5b813561055e8482602086016104f9565b91505092915050565b5f806040838503121561057d5761057c610261565b5b5f83013567ffffffffffffffff81111561059a57610599610265565b5b6105a68582860161053a565b92505060206105b785828601610288565b9150509250929050565b5f81519050919050565b5f82825260208201905092915050565b5f819050602082019050919050565b6105f3816102e6565b82525050565b5f61060483836105ea565b60208301905092915050565b5f602082019050919050565b5f610626826105c1565b61063081856105cb565b935061063b836105db565b805f5b8381101561066b57815161065288826105f9565b975061065d83610610565b92505060018101905061063e565b5085935050505092915050565b5f6020820190508181035f830152610690818461061c565b905092915050565b7f4e487b71000000000000000000000000000000000000000000000000000000005f52602260045260245ffd5b5f60028204905060018216806106dc57607f821691505b6020821081036106ef576106ee610698565b5b5091905056fea26469706673582212205b141af64848079ea45614a9cb44371c748a1c8c567c625d2bf9235a7c4fc45e64736f6c63430008180033",
					"opcodes": "PUSH1 0x80 PUSH1 0x40 MSTORE CALLVALUE DUP1 ISZERO PUSH2 0xF JUMPI PUSH0 DUP1 REVERT JUMPDEST POP PUSH2 0x72B DUP1 PUSH2 0x1D PUSH0 CODECOPY PUSH0 RETURN INVALID PUSH1 0x80 PUSH1 0x40 MSTORE CALLVALUE DUP1 ISZERO PUSH2 0xF JUMPI PUSH0 DUP1 REVERT JUMPDEST POP PUSH1 0x4 CALLDATASIZE LT PUSH2 0x4A JUMPI PUSH0 CALLDATALOAD PUSH1 0xE0 SHR DUP1 PUSH4 0x502C9BD5 EQ PUSH2 0x4E JUMPI DUP1 PUSH4 0xA87430BA EQ PUSH2 0x7E JUMPI DUP1 PUSH4 0xD3951002 EQ PUSH2 0xAF JUMPI DUP1 PUSH4 0xE2842D79 EQ PUSH2 0xCB JUMPI JUMPDEST PUSH0 DUP1 REVERT JUMPDEST PUSH2 0x68 PUSH1 0x4 DUP1 CALLDATASIZE SUB DUP2 ADD SWAP1 PUSH2 0x63 SWAP2 SWAP1 PUSH2 0x29C JUMP JUMPDEST PUSH2 0xE9 JUMP JUMPDEST PUSH1 0x40 MLOAD PUSH2 0x75 SWAP2 SWAP1 PUSH2 0x306 JUMP JUMPDEST PUSH1 0x40 MLOAD DUP1 SWAP2 SUB SWAP1 RETURN JUMPDEST PUSH2 0x98 PUSH1 0x4 DUP1 CALLDATASIZE SUB DUP2 ADD SWAP1 PUSH2 0x93 SWAP2 SWAP1 PUSH2 0x349 JUMP JUMPDEST PUSH2 0x124 JUMP JUMPDEST PUSH1 0x40 MLOAD PUSH2 0xA6 SWAP3 SWAP2 SWAP1 PUSH2 0x40D JUMP JUMPDEST PUSH1 0x40 MLOAD DUP1 SWAP2 SUB SWAP1 RETURN JUMPDEST PUSH2 0xC9 PUSH1 0x4 DUP1 CALLDATASIZE SUB DUP2 ADD SWAP1 PUSH2 0xC4 SWAP2 SWAP1 PUSH2 0x567 JUMP JUMPDEST PUSH2 0x1C9 JUMP JUMPDEST STOP JUMPDEST PUSH2 0xD3 PUSH2 0x1CD JUMP JUMPDEST PUSH1 0x40 MLOAD PUSH2 0xE0 SWAP2 SWAP1 PUSH2 0x678 JUMP JUMPDEST PUSH1 0x40 MLOAD DUP1 SWAP2 SUB SWAP1 RETURN JUMPDEST PUSH1 0x1 DUP2 DUP2 SLOAD DUP2 LT PUSH2 0xF8 JUMPI PUSH0 DUP1 REVERT JUMPDEST SWAP1 PUSH0 MSTORE PUSH1 0x20 PUSH0 KECCAK256 ADD PUSH0 SWAP2 POP SLOAD SWAP1 PUSH2 0x100 EXP SWAP1 DIV PUSH20 0xFFFFFFFFFFFFFFFFFFFFFFFFFFFFFFFFFFFFFFFF AND DUP2 JUMP JUMPDEST PUSH0 PUSH1 0x20 MSTORE DUP1 PUSH0 MSTORE PUSH1 0x40 PUSH0 KECCAK256 PUSH0 SWAP2 POP SWAP1 POP DUP1 PUSH0 ADD DUP1 SLOAD PUSH2 0x142 SWAP1 PUSH2 0x6C5 JUMP JUMPDEST DUP1 PUSH1 0x1F ADD PUSH1 0x20 DUP1 SWAP2 DIV MUL PUSH1 0x20 ADD PUSH1 0x40 MLOAD SWAP1 DUP2 ADD PUSH1 0x40 MSTORE DUP1 SWAP3 SWAP2 SWAP1 DUP2 DUP2 MSTORE PUSH1 0x20 ADD DUP3 DUP1 SLOAD PUSH2 0x16E SWAP1 PUSH2 0x6C5 JUMP JUMPDEST DUP1 ISZERO PUSH2 0x1B9 JUMPI DUP1 PUSH1 0x1F LT PUSH2 0x190 JUMPI PUSH2 0x100 DUP1 DUP4 SLOAD DIV MUL DUP4 MSTORE SWAP2 PUSH1 0x20 ADD SWAP2 PUSH2 0x1B9 JUMP JUMPDEST DUP3 ADD SWAP2 SWAP1 PUSH0 MSTORE PUSH1 0x20 PUSH0 KECCAK256 SWAP1 JUMPDEST DUP2 SLOAD DUP2 MSTORE SWAP1 PUSH1 0x1 ADD SWAP1 PUSH1 0x20 ADD DUP1 DUP4 GT PUSH2 0x19C JUMPI DUP3 SWAP1 SUB PUSH1 0x1F AND DUP3 ADD SWAP2 JUMPDEST POP POP POP POP POP SWAP1 DUP1 PUSH1 0x1 ADD SLOAD SWAP1 POP DUP3 JUMP JUMPDEST POP POP JUMP JUMPDEST PUSH1 0x60 PUSH1 0x1 DUP1 SLOAD DUP1 PUSH1 0x20 MUL PUSH1 0x20 ADD PUSH1 0x40 MLOAD SWAP1 DUP2 ADD PUSH1 0x40 MSTORE DUP1 SWAP3 SWAP2 SWAP1 DUP2 DUP2 MSTORE PUSH1 0x20 ADD DUP3 DUP1 SLOAD DUP1 ISZERO PUSH2 0x24E JUMPI PUSH1 0x20 MUL DUP3 ADD SWAP2 SWAP1 PUSH0 MSTORE PUSH1 0x20 PUSH0 KECCAK256 SWAP1 JUMPDEST DUP2 PUSH0 SWAP1 SLOAD SWAP1 PUSH2 0x100 EXP SWAP1 DIV PUSH20 0xFFFFFFFFFFFFFFFFFFFFFFFFFFFFFFFFFFFFFFFF AND PUSH20 0xFFFFFFFFFFFFFFFFFFFFFFFFFFFFFFFFFFFFFFFF AND DUP2 MSTORE PUSH1 0x20 ADD SWAP1 PUSH1 0x1 ADD SWAP1 DUP1 DUP4 GT PUSH2 0x205 JUMPI JUMPDEST POP POP POP POP POP SWAP1 POP SWAP1 JUMP JUMPDEST PUSH0 PUSH1 0x40 MLOAD SWAP1 POP SWAP1 JUMP JUMPDEST PUSH0 DUP1 REVERT JUMPDEST PUSH0 DUP1 REVERT JUMPDEST PUSH0 DUP2 SWAP1 POP SWAP2 SWAP1 POP JUMP JUMPDEST PUSH2 0x27B DUP2 PUSH2 0x269 JUMP JUMPDEST DUP2 EQ PUSH2 0x285 JUMPI PUSH0 DUP1 REVERT JUMPDEST POP JUMP JUMPDEST PUSH0 DUP2 CALLDATALOAD SWAP1 POP PUSH2 0x296 DUP2 PUSH2 0x272 JUMP JUMPDEST SWAP3 SWAP2 POP POP JUMP JUMPDEST PUSH0 PUSH1 0x20 DUP3 DUP5 SUB SLT ISZERO PUSH2 0x2B1 JUMPI PUSH2 0x2B0 PUSH2 0x261 JUMP JUMPDEST JUMPDEST PUSH0 PUSH2 0x2BE DUP5 DUP3 DUP6 ADD PUSH2 0x288 JUMP JUMPDEST SWAP2 POP POP SWAP3 SWAP2 POP POP JUMP JUMPDEST PUSH0 PUSH20 0xFFFFFFFFFFFFFFFFFFFFFFFFFFFFFFFFFFFFFFFF DUP3 AND SWAP1 POP SWAP2 SWAP1 POP JUMP JUMPDEST PUSH0 PUSH2 0x2F0 DUP3 PUSH2 0x2C7 JUMP JUMPDEST SWAP1 POP SWAP2 SWAP1 POP JUMP JUMPDEST PUSH2 0x300 DUP2 PUSH2 0x2E6 JUMP JUMPDEST DUP3 MSTORE POP POP JUMP JUMPDEST PUSH0 PUSH1 0x20 DUP3 ADD SWAP1 POP PUSH2 0x319 PUSH0 DUP4 ADD DUP5 PUSH2 0x2F7 JUMP JUMPDEST SWAP3 SWAP2 POP POP JUMP JUMPDEST PUSH2 0x328 DUP2 PUSH2 0x2E6 JUMP JUMPDEST DUP2 EQ PUSH2 0x332 JUMPI PUSH0 DUP1 REVERT JUMPDEST POP JUMP JUMPDEST PUSH0 DUP2 CALLDATALOAD SWAP1 POP PUSH2 0x343 DUP2 PUSH2 0x31F JUMP JUMPDEST SWAP3 SWAP2 POP POP JUMP JUMPDEST PUSH0 PUSH1 0x20 DUP3 DUP5 SUB SLT ISZERO PUSH2 0x35E JUMPI PUSH2 0x35D PUSH2 0x261 JUMP JUMPDEST JUMPDEST PUSH0 PUSH2 0x36B DUP5 DUP3 DUP6 ADD PUSH2 0x335 JUMP JUMPDEST SWAP2 POP POP SWAP3 SWAP2 POP POP JUMP JUMPDEST PUSH0 DUP2 MLOAD SWAP1 POP SWAP2 SWAP1 POP JUMP JUMPDEST PUSH0 DUP3 DUP3 MSTORE PUSH1 0x20 DUP3 ADD SWAP1 POP SWAP3 SWAP2 POP POP JUMP JUMPDEST PUSH0 JUMPDEST DUP4 DUP2 LT ISZERO PUSH2 0x3AB JUMPI DUP1 DUP3 ADD MLOAD DUP2 DUP5 ADD MSTORE PUSH1 0x20 DUP2 ADD SWAP1 POP PUSH2 0x390 JUMP JUMPDEST PUSH0 DUP5 DUP5 ADD MSTORE POP POP POP POP JUMP JUMPDEST PUSH0 PUSH1 0x1F NOT PUSH1 0x1F DUP4 ADD AND SWAP1 POP SWAP2 SWAP1 POP JUMP JUMPDEST PUSH0 PUSH2 0x3D0 DUP3 PUSH2 0x374 JUMP JUMPDEST PUSH2 0x3DA DUP2 DUP6 PUSH2 0x37E JUMP JUMPDEST SWAP4 POP PUSH2 0x3EA DUP2 DUP6 PUSH1 0x20 DUP7 ADD PUSH2 0x38E JUMP JUMPDEST PUSH2 0x3F3 DUP2 PUSH2 0x3B6 JUMP JUMPDEST DUP5 ADD SWAP2 POP POP SWAP3 SWAP2 POP POP JUMP JUMPDEST PUSH2 0x407 DUP2 PUSH2 0x269 JUMP JUMPDEST DUP3 MSTORE POP POP JUMP JUMPDEST PUSH0 PUSH1 0x40 DUP3 ADD SWAP1 POP DUP2 DUP2 SUB PUSH0 DUP4 ADD MSTORE PUSH2 0x425 DUP2 DUP6 PUSH2 0x3C6 JUMP JUMPDEST SWAP1 POP PUSH2 0x434 PUSH1 0x20 DUP4 ADD DUP5 PUSH2 0x3FE JUMP JUMPDEST SWAP4 SWAP3 POP POP POP JUMP JUMPDEST PUSH0 DUP1 REVERT JUMPDEST PUSH0 DUP1 REVERT JUMPDEST PUSH32 0x4E487B7100000000000000000000000000000000000000000000000000000000 PUSH0 MSTORE PUSH1 0x41 PUSH1 0x4 MSTORE PUSH1 0x24 PUSH0 REVERT JUMPDEST PUSH2 0x479 DUP3 PUSH2 0x3B6 JUMP JUMPDEST DUP2 ADD DUP2 DUP2 LT PUSH8 0xFFFFFFFFFFFFFFFF DUP3 GT OR ISZERO PUSH2 0x498 JUMPI PUSH2 0x497 PUSH2 0x443 JUMP JUMPDEST JUMPDEST DUP1 PUSH1 0x40 MSTORE POP POP POP JUMP JUMPDEST PUSH0 PUSH2 0x4AA PUSH2 0x258 JUMP JUMPDEST SWAP1 POP PUSH2 0x4B6 DUP3 DUP3 PUSH2 0x470 JUMP JUMPDEST SWAP2 SWAP1 POP JUMP JUMPDEST PUSH0 PUSH8 0xFFFFFFFFFFFFFFFF DUP3 GT ISZERO PUSH2 0x4D5 JUMPI PUSH2 0x4D4 PUSH2 0x443 JUMP JUMPDEST JUMPDEST PUSH2 0x4DE DUP3 PUSH2 0x3B6 JUMP JUMPDEST SWAP1 POP PUSH1 0x20 DUP2 ADD SWAP1 POP SWAP2 SWAP1 POP JUMP JUMPDEST DUP3 DUP2 DUP4 CALLDATACOPY PUSH0 DUP4 DUP4 ADD MSTORE POP POP POP JUMP JUMPDEST PUSH0 PUSH2 0x50B PUSH2 0x506 DUP5 PUSH2 0x4BB JUMP JUMPDEST PUSH2 0x4A1 JUMP JUMPDEST SWAP1 POP DUP3 DUP2 MSTORE PUSH1 0x20 DUP2 ADD DUP5 DUP5 DUP5 ADD GT ISZERO PUSH2 0x527 JUMPI PUSH2 0x526 PUSH2 0x43F JUMP JUMPDEST JUMPDEST PUSH2 0x532 DUP5 DUP3 DUP6 PUSH2 0x4EB JUMP JUMPDEST POP SWAP4 SWAP3 POP POP POP JUMP JUMPDEST PUSH0 DUP3 PUSH1 0x1F DUP4 ADD SLT PUSH2 0x54E JUMPI PUSH2 0x54D PUSH2 0x43B JUMP JUMPDEST JUMPDEST DUP2 CALLDATALOAD PUSH2 0x55E DUP5 DUP3 PUSH1 0x20 DUP7 ADD PUSH2 0x4F9 JUMP JUMPDEST SWAP2 POP POP SWAP3 SWAP2 POP POP JUMP JUMPDEST PUSH0 DUP1 PUSH1 0x40 DUP4 DUP6 SUB SLT ISZERO PUSH2 0x57D JUMPI PUSH2 0x57C PUSH2 0x261 JUMP JUMPDEST JUMPDEST PUSH0 DUP4 ADD CALLDATALOAD PUSH8 0xFFFFFFFFFFFFFFFF DUP2 GT ISZERO PUSH2 0x59A JUMPI PUSH2 0x599 PUSH2 0x265 JUMP JUMPDEST JUMPDEST PUSH2 0x5A6 DUP6 DUP3 DUP7 ADD PUSH2 0x53A JUMP JUMPDEST SWAP3 POP POP PUSH1 0x20 PUSH2 0x5B7 DUP6 DUP3 DUP7 ADD PUSH2 0x288 JUMP JUMPDEST SWAP2 POP POP SWAP3 POP SWAP3 SWAP1 POP JUMP JUMPDEST PUSH0 DUP2 MLOAD SWAP1 POP SWAP2 SWAP1 POP JUMP JUMPDEST PUSH0 DUP3 DUP3 MSTORE PUSH1 0x20 DUP3 ADD SWAP1 POP SWAP3 SWAP2 POP POP JUMP JUMPDEST PUSH0 DUP2 SWAP1 POP PUSH1 0x20 DUP3 ADD SWAP1 POP SWAP2 SWAP1 POP JUMP JUMPDEST PUSH2 0x5F3 DUP2 PUSH2 0x2E6 JUMP JUMPDEST DUP3 MSTORE POP POP JUMP JUMPDEST PUSH0 PUSH2 0x604 DUP4 DUP4 PUSH2 0x5EA JUMP JUMPDEST PUSH1 0x20 DUP4 ADD SWAP1 POP SWAP3 SWAP2 POP POP JUMP JUMPDEST PUSH0 PUSH1 0x20 DUP3 ADD SWAP1 POP SWAP2 SWAP1 POP JUMP JUMPDEST PUSH0 PUSH2 0x626 DUP3 PUSH2 0x5C1 JUMP JUMPDEST PUSH2 0x630 DUP2 DUP6 PUSH2 0x5CB JUMP JUMPDEST SWAP4 POP PUSH2 0x63B DUP4 PUSH2 0x5DB JUMP JUMPDEST DUP1 PUSH0 JUMPDEST DUP4 DUP2 LT ISZERO PUSH2 0x66B JUMPI DUP2 MLOAD PUSH2 0x652 DUP9 DUP3 PUSH2 0x5F9 JUMP JUMPDEST SWAP8 POP PUSH2 0x65D DUP4 PUSH2 0x610 JUMP JUMPDEST SWAP3 POP POP PUSH1 0x1 DUP2 ADD SWAP1 POP PUSH2 0x63E JUMP JUMPDEST POP DUP6 SWAP4 POP POP POP POP SWAP3 SWAP2 POP POP JUMP JUMPDEST PUSH0 PUSH1 0x20 DUP3 ADD SWAP1 POP DUP2 DUP2 SUB PUSH0 DUP4 ADD MSTORE PUSH2 0x690 DUP2 DUP5 PUSH2 0x61C JUMP JUMPDEST SWAP1 POP SWAP3 SWAP2 POP POP JUMP JUMPDEST PUSH32 0x4E487B7100000000000000000000000000000000000000000000000000000000 PUSH0 MSTORE PUSH1 0x22 PUSH1 0x4 MSTORE PUSH1 0x24 PUSH0 REVERT JUMPDEST PUSH0 PUSH1 0x2 DUP3 DIV SWAP1 POP PUSH1 0x1 DUP3 AND DUP1 PUSH2 0x6DC JUMPI PUSH1 0x7F DUP3 AND SWAP2 POP JUMPDEST PUSH1 0x20 DUP3 LT DUP2 SUB PUSH2 0x6EF JUMPI PUSH2 0x6EE PUSH2 0x698 JUMP JUMPDEST JUMPDEST POP SWAP2 SWAP1 POP JUMP INVALID LOG2 PUSH5 0x6970667358 0x22 SLT KECCAK256 JUMPDEST EQ BYTE 0xF6 BASEFEE BASEFEE SMOD SWAP15 LOG4 JUMP EQ 0xA9 0xCB PREVRANDAO CALLDATACOPY SHR PUSH21 0x8A1C8C567C625D2BF9235A7C4FC45E64736F6C6343 STOP ADDMOD XOR STOP CALLER "
				},
				"gasEstimates": {
					"creation": {
						"codeDepositCost": "367000",
						"executionCost": "403",
						"totalCost": "367403"
					},
					"external": {
						"getAllUsers()": "infinite",
						"registerUser(string,uint256)": "infinite",
						"userAddresses(uint256)": "4922",
						"users(address)": "infinite"
					}
				},
				"methodIdentifiers": {
					"getAllUsers()": "e2842d79",
					"registerUser(string,uint256)": "d3951002",
					"userAddresses(uint256)": "502c9bd5",
					"users(address)": "a87430ba"
				}
			},
			"storageLayout": {
				"storage": [
					{
						"astId": 11,
						"contract": "UserRegistry.sol:UserRegistry",
						"label": "users",
						"offset": 0,
						"slot": "0",
						"type": "t_mapping(t_address,t_struct(User)6_storage)"
					},
					{
						"astId": 14,
						"contract": "UserRegistry.sol:UserRegistry",
						"label": "userAddresses",
						"offset": 0,
						"slot": "1",
						"type": "t_array(t_address)dyn_storage"
					}
				],
				"types": {
					"t_address": {
						"encoding": "inplace",
						"label": "address",
						"numberOfBytes": "20"
					},
					"t_array(t_address)dyn_storage": {
						"base": "t_address",
						"encoding": "dynamic_array",
						"label": "address[]",
						"numberOfBytes": "32"
					},
					"t_mapping(t_address,t_struct(User)6_storage)": {
						"encoding": "mapping",
						"key": "t_address",
						"label": "mapping(address => struct UserRegistry.User)",
						"numberOfBytes": "32",
						"value": "t_struct(User)6_storage"
					},
					"t_string_storage": {
						"encoding": "bytes",
						"label": "string",
						"numberOfBytes": "32"
					},
					"t_struct(User)6_storage": {
						"encoding": "inplace",
						"label": "struct UserRegistry.User",
						"members": [
							{
								"astId": 3,
								"contract": "UserRegistry.sol:UserRegistry",
								"label": "name",
								"offset": 0,
								"slot": "0",
								"type": "t_string_storage"
							},
							{
								"astId": 5,
								"contract": "UserRegistry.sol:UserRegistry",
								"label": "balance",
								"offset": 0,
								"slot": "1",
								"type": "t_uint256"
							}
						],
						"numberOfBytes": "64"
					},
					"t_uint256": {
						"encoding": "inplace",
						"label": "uint256",
						"numberOfBytes": "32"
					}
				}
			},
			"userdoc": {
				"kind": "user",
				"methods": {},
				"version": 1
			}
		}
	}
}